{
  "contractName": "KittyCore",
  "abi": [
    {
      "constant": true,
      "inputs": [],
      "name": "zombieContract",
      "outputs": [
        {
          "name": "",
          "type": "address"
        }
      ],
      "payable": false,
      "stateMutability": "view",
      "type": "function"
    },
    {
      "constant": false,
      "inputs": [],
      "name": "renounceOwnership",
      "outputs": [],
      "payable": false,
      "stateMutability": "nonpayable",
      "type": "function"
    },
    {
      "constant": true,
      "inputs": [
        {
          "name": "",
          "type": "uint256"
        }
      ],
      "name": "kitties",
      "outputs": [
        {
          "name": "dna",
          "type": "uint256"
        },
        {
          "name": "name",
          "type": "string"
        },
        {
          "name": "multiplier",
          "type": "uint8"
        }
      ],
      "payable": false,
      "stateMutability": "view",
      "type": "function"
    },
    {
      "constant": true,
      "inputs": [],
      "name": "owner",
      "outputs": [
        {
          "name": "",
          "type": "address"
        }
      ],
      "payable": false,
      "stateMutability": "view",
      "type": "function"
    },
    {
      "constant": true,
      "inputs": [],
      "name": "isOwner",
      "outputs": [
        {
          "name": "",
          "type": "bool"
        }
      ],
      "payable": false,
      "stateMutability": "view",
      "type": "function"
    },
    {
      "constant": false,
      "inputs": [
        {
          "name": "newOwner",
          "type": "address"
        }
      ],
      "name": "transferOwnership",
      "outputs": [],
      "payable": false,
      "stateMutability": "nonpayable",
      "type": "function"
    },
    {
      "anonymous": false,
      "inputs": [
        {
          "indexed": true,
          "name": "previousOwner",
          "type": "address"
        },
        {
          "indexed": true,
          "name": "newOwner",
          "type": "address"
        }
      ],
      "name": "OwnershipTransferred",
      "type": "event"
    },
    {
      "constant": true,
      "inputs": [],
      "name": "getKittyCount",
      "outputs": [
        {
          "name": "",
          "type": "uint256"
        }
      ],
      "payable": false,
      "stateMutability": "view",
      "type": "function"
    },
    {
      "constant": false,
      "inputs": [
        {
          "name": "_name",
          "type": "string"
        }
      ],
      "name": "createRandomKitty",
      "outputs": [],
      "payable": false,
      "stateMutability": "nonpayable",
      "type": "function"
    },
    {
      "constant": false,
      "inputs": [
        {
          "name": "_dna",
          "type": "uint256"
        },
        {
          "name": "_name",
          "type": "string"
        },
        {
          "name": "_multiplier",
          "type": "uint8"
        }
      ],
      "name": "_createKitty",
      "outputs": [],
      "payable": false,
      "stateMutability": "nonpayable",
      "type": "function"
    },
    {
      "constant": false,
      "inputs": [
        {
          "name": "_zombieContract",
          "type": "address"
        }
      ],
      "name": "setZombieContract",
      "outputs": [],
      "payable": false,
      "stateMutability": "nonpayable",
      "type": "function"
    },
    {
      "constant": false,
      "inputs": [
        {
          "name": "_id",
          "type": "uint256"
        }
      ],
      "name": "consumeKitty",
      "outputs": [],
      "payable": false,
      "stateMutability": "nonpayable",
      "type": "function"
    },
    {
      "constant": true,
      "inputs": [
        {
          "name": "_id",
          "type": "uint256"
        }
      ],
      "name": "getKitty",
      "outputs": [
        {
          "name": "isGestating",
          "type": "bool"
        },
        {
          "name": "isReady",
          "type": "bool"
        },
        {
          "name": "cooldownIndex",
          "type": "uint256"
        },
        {
          "name": "nextActionAt",
          "type": "uint256"
        },
        {
          "name": "siringWithId",
          "type": "uint256"
        },
        {
          "name": "birthTime",
          "type": "uint256"
        },
        {
          "name": "matronId",
          "type": "uint256"
        },
        {
          "name": "sireId",
          "type": "uint256"
        },
        {
          "name": "generation",
          "type": "uint256"
        },
        {
          "name": "genes",
          "type": "uint256"
        }
      ],
      "payable": false,
      "stateMutability": "view",
      "type": "function"
    },
    {
      "constant": true,
      "inputs": [
        {
          "name": "_id",
          "type": "uint256"
        }
      ],
      "name": "getKittyMetadata",
      "outputs": [
        {
          "name": "name",
          "type": "string"
        },
        {
          "name": "dna",
          "type": "uint256"
        },
        {
          "name": "multiplier",
          "type": "uint8"
        }
      ],
      "payable": false,
      "stateMutability": "view",
      "type": "function"
    }
  ],
  "bytecode": "0x6080604052336000806101000a81548173ffffffffffffffffffffffffffffffffffffffff021916908373ffffffffffffffffffffffffffffffffffffffff1602179055506000809054906101000a900473ffffffffffffffffffffffffffffffffffffffff1673ffffffffffffffffffffffffffffffffffffffff16600073ffffffffffffffffffffffffffffffffffffffff167f8be0079c531659141344cd1fd0a4f28419497f9722a3daafe3b4186f6b6457e060405160405180910390a3611528806100cf6000396000f3006080604052600436106100c5576000357c0100000000000000000000000000000000000000000000000000000000900463ffffffff168063138d22ce146100ca5780633ef485221461012157806355f851431461014e578063715018a6146101ce5780638cc51eda146101e55780638da5cb5b1461029f5780638f32d59b146102f6578063adb4402b14610325578063b0f25d6d14610368578063e98b7f4d146103d1578063ed3c692314610459578063eeb5845014610484578063f2fde38b1461053e575b600080fd5b3480156100d657600080fd5b506100df610581565b604051808273ffffffffffffffffffffffffffffffffffffffff1673ffffffffffffffffffffffffffffffffffffffff16815260200191505060405180910390f35b34801561012d57600080fd5b5061014c600480360381019080803590602001909291905050506105a7565b005b34801561015a57600080fd5b506101cc60048036038101908080359060200190929190803590602001908201803590602001908080601f0160208091040260200160405190810160405280939291908181526020018383808284378201915050505050509192919290803560ff169060200190929190505050610801565b005b3480156101da57600080fd5b506101e36108f6565b005b3480156101f157600080fd5b50610210600480360381019080803590602001909291905050506109c8565b60405180848152602001806020018360ff1660ff168152602001828103825284818151815260200191508051906020019080838360005b83811015610262578082015181840152602081019050610247565b50505050905090810190601f16801561028f5780820380516001836020036101000a031916815260200191505b5094505050505060405180910390f35b3480156102ab57600080fd5b506102b4610aa6565b604051808273ffffffffffffffffffffffffffffffffffffffff1673ffffffffffffffffffffffffffffffffffffffff16815260200191505060405180910390f35b34801561030257600080fd5b5061030b610acf565b604051808215151515815260200191505060405180910390f35b34801561033157600080fd5b50610366600480360381019080803573ffffffffffffffffffffffffffffffffffffffff169060200190929190505050610b26565b005b34801561037457600080fd5b506103cf600480360381019080803590602001908201803590602001908080601f0160208091040260200160405190810160405280939291908181526020018383808284378201915050505050509192919290505050610ce8565b005b3480156103dd57600080fd5b506103fc60048036038101908080359060200190929190505050610d11565b604051808b1515151581526020018a1515151581526020018981526020018881526020018781526020018681526020018581526020018481526020018381526020018281526020019a505050505050505050505060405180910390f35b34801561046557600080fd5b5061046e610e02565b6040518082815260200191505060405180910390f35b34801561049057600080fd5b506104af60048036038101908080359060200190929190505050610e0f565b60405180806020018481526020018360ff1660ff168152602001828103825285818151815260200191508051906020019080838360005b838110156105015780820151818401526020810190506104e6565b50505050905090810190601f16801561052e5780820380516001836020036101000a031916815260200191505b5094505050505060405180910390f35b34801561054a57600080fd5b5061057f600480360381019080803573ffffffffffffffffffffffffffffffffffffffff169060200190929190505050610f76565b005b600260009054906101000a900473ffffffffffffffffffffffffffffffffffffffff1681565b6000600260009054906101000a900473ffffffffffffffffffffffffffffffffffffffff1673ffffffffffffffffffffffffffffffffffffffff163373ffffffffffffffffffffffffffffffffffffffff1614151561066e576040517f08c379a000000000000000000000000000000000000000000000000000000000815260040180806020018281038252601e8152602001807f43616c6c6572206d757374206265207a6f6d62696520636f6e7472616374000081525060200191505060405180910390fd5b600180549050821015156106ea576040517f08c379a00000000000000000000000000000000000000000000000000000000081526004018080602001828103825260108152602001807f496e76616c6964206b697474792069640000000000000000000000000000000081525060200191505060405180910390fd5b60018080549050039050808214151561079b5760018181548110151561070c57fe5b906000526020600020906003020160018381548110151561072957fe5b9060005260206000209060030201600082015481600001556001820181600101908054600181600116156101000203166002900461076892919061130b565b506002820160009054906101000a900460ff168160020160006101000a81548160ff021916908360ff1602179055509050505b6001818154811015156107aa57fe5b90600052602060002090600302016000808201600090556001820160006107d19190611392565b6002820160006101000a81549060ff0219169055505060018054809190600190036107fc91906113da565b505050565b6060600080845111610848576040805190810160405280600e81526020017f4e616d656c657373204b6974747900000000000000000000000000000000000081525061084a565b835b91506108568383610f95565b905060016060604051908101604052808781526020018481526020018360ff16815250908060018154018082558091505090600182039060005260206000209060030201600090919290919091506000820151816000015560208201518160010190805190602001906108ca92919061140c565b5060408201518160020160006101000a81548160ff021916908360ff1602179055505050505050505050565b6108fe610acf565b151561090957600080fd5b600073ffffffffffffffffffffffffffffffffffffffff166000809054906101000a900473ffffffffffffffffffffffffffffffffffffffff1673ffffffffffffffffffffffffffffffffffffffff167f8be0079c531659141344cd1fd0a4f28419497f9722a3daafe3b4186f6b6457e060405160405180910390a360008060006101000a81548173ffffffffffffffffffffffffffffffffffffffff021916908373ffffffffffffffffffffffffffffffffffffffff160217905550565b6001818154811015156109d757fe5b9060005260206000209060030201600091509050806000015490806001018054600181600116156101000203166002900480601f016020809104026020016040519081016040528092919081815260200182805460018160011615610100020316600290048015610a895780601f10610a5e57610100808354040283529160200191610a89565b820191906000526020600020905b815481529060010190602001808311610a6c57829003601f168201915b5050505050908060020160009054906101000a900460ff16905083565b60008060009054906101000a900473ffffffffffffffffffffffffffffffffffffffff16905090565b60008060009054906101000a900473ffffffffffffffffffffffffffffffffffffffff1673ffffffffffffffffffffffffffffffffffffffff163373ffffffffffffffffffffffffffffffffffffffff1614905090565b610b2e610acf565b1515610b3957600080fd5b600073ffffffffffffffffffffffffffffffffffffffff168173ffffffffffffffffffffffffffffffffffffffff1614151515610bde576040517f08c379a00000000000000000000000000000000000000000000000000000000081526004018080602001828103825260178152602001807f496e76616c6964207a6f6d62696520636f6e747261637400000000000000000081525060200191505060405180910390fd5b600073ffffffffffffffffffffffffffffffffffffffff16600260009054906101000a900473ffffffffffffffffffffffffffffffffffffffff1673ffffffffffffffffffffffffffffffffffffffff16141515610ca4576040517f08c379a000000000000000000000000000000000000000000000000000000000815260040180806020018281038252601b8152602001807f5a6f6d62696520636f6e747261637420616c726561647920736574000000000081525060200191505060405180910390fd5b80600260006101000a81548173ffffffffffffffffffffffffffffffffffffffff021916908373ffffffffffffffffffffffffffffffffffffffff16021790555050565b600080610cf483610fce565b9150610cff836110c1565b9050610d0c828483610801565b505050565b6000806000806000806000806000806001805490508b101515610d9c576040517f08c379a00000000000000000000000000000000000000000000000000000000081526004018080602001828103825260108152602001807f496e76616c6964206b697474792069640000000000000000000000000000000081525060200191505060405180910390fd5b60018b815481101515610dab57fe5b90600052602060002090600302016000015490506000600160008060004260008060008987975086965085955083935082925081915099509950995099509950995099509950995099509193959799509193959799565b6000600180549050905090565b6060600080600060018054905085101515610e92576040517f08c379a00000000000000000000000000000000000000000000000000000000081526004018080602001828103825260108152602001807f496e76616c6964206b697474792069640000000000000000000000000000000081525060200191505060405180910390fd5b600185815481101515610ea157fe5b906000526020600020906003020190508060010181600001548260020160009054906101000a900460ff16828054600181600116156101000203166002900480601f016020809104026020016040519081016040528092919081815260200182805460018160011615610100020316600290048015610f615780601f10610f3657610100808354040283529160200191610f61565b820191906000526020600020905b815481529060010190602001808311610f4457829003601f168201915b50505050509250935093509350509193909250565b610f7e610acf565b1515610f8957600080fd5b610f9281611211565b50565b600060028360ff1610158015610faf575060068360ff1611155b15610fbc57829050610fc8565b610fc5826110c1565b90505b92915050565b600080826040516020018082805190602001908083835b60208310151561100a5780518252602082019150602081019050602083039250610fe5565b6001836020036101000a0380198251168184511680821785525050505050509050019150506040516020818303038152906040526040518082805190602001908083835b602083101515611073578051825260208201915060208101905060208303925061104e565b6001836020036101000a0380198251168184511680821785525050505050509050019150506040518091039020600190049050662386f26fc10000818115156110b857fe5b06915050919050565b600080824243600180549050336040516020018086805190602001908083835b60208310151561110657805182526020820191506020810190506020830392506110e1565b6001836020036101000a0380198251168184511680821785525050505050509050018581526020018481526020018381526020018273ffffffffffffffffffffffffffffffffffffffff1673ffffffffffffffffffffffffffffffffffffffff166c01000000000000000000000000028152601401955050505050506040516020818303038152906040526040518082805190602001908083835b6020831015156111c657805182526020820191506020810190506020830392506111a1565b6001836020036101000a0380198251168184511680821785525050505050509050019150506040518091039020600190049050600260058281151561120757fe5b0601915050919050565b600073ffffffffffffffffffffffffffffffffffffffff168173ffffffffffffffffffffffffffffffffffffffff161415151561124d57600080fd5b8073ffffffffffffffffffffffffffffffffffffffff166000809054906101000a900473ffffffffffffffffffffffffffffffffffffffff1673ffffffffffffffffffffffffffffffffffffffff167f8be0079c531659141344cd1fd0a4f28419497f9722a3daafe3b4186f6b6457e060405160405180910390a3806000806101000a81548173ffffffffffffffffffffffffffffffffffffffff021916908373ffffffffffffffffffffffffffffffffffffffff16021790555050565b828054600181600116156101000203166002900490600052602060002090601f016020900481019282601f106113445780548555611381565b8280016001018555821561138157600052602060002091601f016020900482015b82811115611380578254825591600101919060010190611365565b5b50905061138e919061148c565b5090565b50805460018160011615610100020316600290046000825580601f106113b857506113d7565b601f0160209004906000526020600020908101906113d6919061148c565b5b50565b8154818355818111156114075760030281600302836000526020600020918201910161140691906114b1565b5b505050565b828054600181600116156101000203166002900490600052602060002090601f016020900481019282601f1061144d57805160ff191683800117855561147b565b8280016001018555821561147b579182015b8281111561147a57825182559160200191906001019061145f565b5b509050611488919061148c565b5090565b6114ae91905b808211156114aa576000816000905550600101611492565b5090565b90565b6114f991905b808211156114f5576000808201600090556001820160006114d89190611392565b6002820160006101000a81549060ff0219169055506003016114b7565b5090565b905600a165627a7a72305820bdff8245861dc15d1d2df996f7a22ba099917eb1253f5959bcf9d4b6c574e9ae0029",
  "source": "pragma solidity >=0.4.22 <0.9.0;\n\nimport \"./ownable.sol\";\n\ncontract KittyCore is Ownable {\n    struct Kitty {\n        uint256 dna;\n        string name;\n        uint8 multiplier;\n    }\n\n    Kitty[] public kitties;\n    address public zombieContract;\n\n    modifier onlyZombieContract() {\n        require(msg.sender == zombieContract, \"Caller must be zombie contract\");\n        _;\n    }\n\n    function getKittyCount() external view returns (uint256) {\n        return kitties.length;\n    }\n\n    function _generateRandomDna(string memory _str) private pure returns (uint256) {\n        uint256 rand = uint256(keccak256(abi.encodePacked(_str)));\n        return rand % (10 ** 16); // Ensure DNA is a 16-digit number\n    }\n\n    function createRandomKitty(string memory _name) public {\n        uint256 randDna = _generateRandomDna(_name);\n        uint8 multiplier = _generateMultiplier(_name);\n        _createKitty(randDna, _name, multiplier);\n    }\n\n    function _createKitty(uint256 _dna, string memory _name, uint8 _multiplier) public {\n        string memory kittyName = bytes(_name).length > 0 ? _name : \"Nameless Kitty\";\n        uint8 multiplier = _normalizeMultiplier(_multiplier, kittyName);\n        kitties.push(Kitty(_dna, kittyName, multiplier));\n    }\n\n    function _generateMultiplier(string memory _seed) internal view returns (uint8) {\n        uint256 rand = uint256(\n            keccak256(\n                abi.encodePacked(_seed, block.timestamp, block.number, kitties.length, msg.sender)\n            )\n        );\n        return uint8((rand % 5) + 2); // Range 2-6\n    }\n\n    function _normalizeMultiplier(uint8 _multiplier, string memory _seed) internal view returns (uint8) {\n        if (_multiplier >= 2 && _multiplier <= 6) {\n            return _multiplier;\n        }\n        return _generateMultiplier(_seed);\n    }\n\n    function setZombieContract(address _zombieContract) external onlyOwner {\n        require(_zombieContract != address(0), \"Invalid zombie contract\");\n        require(zombieContract == address(0), \"Zombie contract already set\");\n        zombieContract = _zombieContract;\n    }\n\n    function consumeKitty(uint256 _id) external onlyZombieContract {\n        require(_id < kitties.length, \"Invalid kitty id\");\n        uint256 lastIndex = kitties.length - 1;\n\n        if (_id != lastIndex) {\n            kitties[_id] = kitties[lastIndex];\n        }\n\n        delete kitties[lastIndex];\n        kitties.length--;\n    }\n\n    function getKitty(uint256 _id) external view returns (\n        bool isGestating,\n        bool isReady,\n        uint256 cooldownIndex,\n        uint256 nextActionAt,\n        uint256 siringWithId,\n        uint256 birthTime,\n        uint256 matronId,\n        uint256 sireId,\n        uint256 generation,\n        uint256 genes\n    ) {\n        // Simplified response for compatibility with ZombieFeeding\n        require(_id < kitties.length, \"Invalid kitty id\");\n        genes = kitties[_id].dna;\n        return (false, true, 0, 0, 0, block.timestamp, 0, 0, 0, genes);\n    }\n\n    function getKittyMetadata(uint256 _id)\n        external\n        view\n        returns (\n            string memory name,\n            uint256 dna,\n            uint8 multiplier\n        )\n    {\n        require(_id < kitties.length, \"Invalid kitty id\");\n        Kitty storage kitty = kitties[_id];\n        return (kitty.name, kitty.dna, kitty.multiplier);\n    }\n}\n",
  "sourcePath": "/Users/ishan/Desktop/BlockChain/blockchain-midterm-project/contracts/KittyCore.sol",
  "compiler": {
    "name": "solc",
    "version": "0.4.25+commit.59dbf8f1.Emscripten.clang"
  },
  "schemaVersion": "3.4.16",
  "updatedAt": "2025-10-19T21:59:09.008Z",
  "networkType": "ethereum",
  "devdoc": {
    "methods": {
      "isOwner()": {
        "return": "true if `msg.sender` is the owner of the contract."
      },
      "owner()": {
        "return": "the address of the owner."
      },
      "renounceOwnership()": {
        "details": "Allows the current owner to relinquish control of the contract."
      },
      "transferOwnership(address)": {
        "details": "Allows the current owner to transfer control of the contract to a newOwner.",
        "params": {
          "newOwner": "The address to transfer ownership to."
        }
      }
    }
  },
  "userdoc": {
    "methods": {
      "renounceOwnership()": {
        "notice": "Renouncing to ownership will leave the contract without an owner. It will not be possible to call the functions with the `onlyOwner` modifier anymore."
      }
    }
  }
}