{
  "contractName": "KittyCore",
  "abi": [
    {
      "constant": true,
      "inputs": [
        {
          "name": "",
          "type": "uint256"
        }
      ],
      "name": "kitties",
      "outputs": [
        {
          "name": "dna",
          "type": "uint256"
        }
      ],
      "payable": false,
      "stateMutability": "view",
      "type": "function"
    },
    {
      "constant": true,
      "inputs": [],
      "name": "getKittyCount",
      "outputs": [
        {
          "name": "",
          "type": "uint256"
        }
      ],
      "payable": false,
      "stateMutability": "view",
      "type": "function"
    },
    {
      "constant": false,
      "inputs": [
        {
          "name": "_name",
          "type": "string"
        }
      ],
      "name": "createRandomKitty",
      "outputs": [],
      "payable": false,
      "stateMutability": "nonpayable",
      "type": "function"
    },
    {
      "constant": false,
      "inputs": [
        {
          "name": "_dna",
          "type": "uint256"
        }
      ],
      "name": "_createKitty",
      "outputs": [],
      "payable": false,
      "stateMutability": "nonpayable",
      "type": "function"
    },
    {
      "constant": true,
      "inputs": [
        {
          "name": "_id",
          "type": "uint256"
        }
      ],
      "name": "getKitty",
      "outputs": [
        {
          "name": "isGestating",
          "type": "bool"
        },
        {
          "name": "isReady",
          "type": "bool"
        },
        {
          "name": "cooldownIndex",
          "type": "uint256"
        },
        {
          "name": "nextActionAt",
          "type": "uint256"
        },
        {
          "name": "siringWithId",
          "type": "uint256"
        },
        {
          "name": "birthTime",
          "type": "uint256"
        },
        {
          "name": "matronId",
          "type": "uint256"
        },
        {
          "name": "sireId",
          "type": "uint256"
        },
        {
          "name": "generation",
          "type": "uint256"
        },
        {
          "name": "genes",
          "type": "uint256"
        }
      ],
      "payable": false,
      "stateMutability": "view",
      "type": "function"
    }
  ],
  "bytecode": "0x608060405234801561001057600080fd5b50610424806100206000396000f30060806040526004361061006d576000357c0100000000000000000000000000000000000000000000000000000000900463ffffffff168063227cda17146100725780638cc51eda1461009f578063b0f25d6d146100e0578063e98b7f4d14610149578063ed3c6923146101d1575b600080fd5b34801561007e57600080fd5b5061009d600480360381019080803590602001909291905050506101fc565b005b3480156100ab57600080fd5b506100ca60048036038101908080359060200190929190505050610245565b6040518082815260200191505060405180910390f35b3480156100ec57600080fd5b50610147600480360381019080803590602001908201803590602001908080601f016020809104026020016040519081016040528093929190818152602001838380828437820191505050505050919291929050505061026e565b005b34801561015557600080fd5b5061017460048036038101908080359060200190929190505050610288565b604051808b1515151581526020018a1515151581526020018981526020018881526020018781526020018681526020018581526020018481526020018381526020018281526020019a505050505050505050505060405180910390f35b3480156101dd57600080fd5b506101e66102f9565b6040518082815260200191505060405180910390f35b6000602060405190810160405280838152509080600181540180825580915050906001820390600052602060002001600090919290919091506000820151816000015550505050565b60008181548110151561025457fe5b906000526020600020016000915090508060000154905081565b600061027982610305565b9050610284816101fc565b5050565b60008060008060008060008060008060008b8154811015156102a657fe5b906000526020600020016000015490506000600160008060004260008060008987975086965085955083935082925081915099509950995099509950995099509950995099509193959799509193959799565b60008080549050905090565b600080826040516020018082805190602001908083835b602083101515610341578051825260208201915060208101905060208303925061031c565b6001836020036101000a0380198251168184511680821785525050505050509050019150506040516020818303038152906040526040518082805190602001908083835b6020831015156103aa5780518252602082019150602081019050602083039250610385565b6001836020036101000a0380198251168184511680821785525050505050509050019150506040518091039020600190049050662386f26fc10000818115156103ef57fe5b069150509190505600a165627a7a7230582069548a78c7d83bf9706cf4b99fe02683385c11c6c76e8ec6af729560880e68a00029",
  "source": "pragma solidity ^0.4.25;\n\ncontract KittyCore {\n    struct Kitty {\n        uint256 dna;\n    }\n\n    Kitty[] public kitties;\n\n    function getKittyCount() external view returns (uint256) {\n        return kitties.length;\n    }\n\n    function _generateRandomDna(string memory _str) private pure returns (uint256) {\n        uint256 rand = uint256(keccak256(abi.encodePacked(_str)));\n        return rand % (10 ** 16); // Ensure DNA is a 16-digit number\n    }\n\n    function createRandomKitty(string memory _name) public {\n        uint256 randDna = _generateRandomDna(_name);\n        _createKitty(randDna);\n    }\n\n    function _createKitty(uint256 _dna) public {\n        kitties.push(Kitty(_dna));\n    }\n\n    function getKitty(uint256 _id) external view returns (\n        bool isGestating,\n        bool isReady,\n        uint256 cooldownIndex,\n        uint256 nextActionAt,\n        uint256 siringWithId,\n        uint256 birthTime,\n        uint256 matronId,\n        uint256 sireId,\n        uint256 generation,\n        uint256 genes\n    ) {\n        // Simplified response for compatibility with ZombieFeeding\n        genes = kitties[_id].dna;\n        return (false, true, 0, 0, 0, now, 0, 0, 0, genes);\n    }\n}\n",
  "sourcePath": "/Users/ishan/Desktop/BlockChain/blockchain-midterm-project/contracts/KittyCore.sol",
  "compiler": {
    "name": "solc",
    "version": "0.4.25+commit.59dbf8f1.Emscripten.clang"
  },
  "schemaVersion": "3.4.16",
  "updatedAt": "2025-10-18T20:22:09.467Z",
  "networkType": "ethereum",
  "devdoc": {
    "methods": {}
  },
  "userdoc": {
    "methods": {}
  }
}