{
  "contractName": "KittyCore",
  "abi": [
    {
      "constant": true,
      "inputs": [],
      "name": "zombieContract",
      "outputs": [
        {
          "name": "",
          "type": "address"
        }
      ],
      "payable": false,
      "stateMutability": "view",
      "type": "function"
    },
    {
      "constant": false,
      "inputs": [],
      "name": "renounceOwnership",
      "outputs": [],
      "payable": false,
      "stateMutability": "nonpayable",
      "type": "function"
    },
    {
      "constant": true,
      "inputs": [
        {
          "name": "",
          "type": "uint256"
        }
      ],
      "name": "kitties",
      "outputs": [
        {
          "name": "dna",
          "type": "uint256"
        }
      ],
      "payable": false,
      "stateMutability": "view",
      "type": "function"
    },
    {
      "constant": true,
      "inputs": [],
      "name": "owner",
      "outputs": [
        {
          "name": "",
          "type": "address"
        }
      ],
      "payable": false,
      "stateMutability": "view",
      "type": "function"
    },
    {
      "constant": true,
      "inputs": [],
      "name": "isOwner",
      "outputs": [
        {
          "name": "",
          "type": "bool"
        }
      ],
      "payable": false,
      "stateMutability": "view",
      "type": "function"
    },
    {
      "constant": false,
      "inputs": [
        {
          "name": "newOwner",
          "type": "address"
        }
      ],
      "name": "transferOwnership",
      "outputs": [],
      "payable": false,
      "stateMutability": "nonpayable",
      "type": "function"
    },
    {
      "anonymous": false,
      "inputs": [
        {
          "indexed": true,
          "name": "previousOwner",
          "type": "address"
        },
        {
          "indexed": true,
          "name": "newOwner",
          "type": "address"
        }
      ],
      "name": "OwnershipTransferred",
      "type": "event"
    },
    {
      "constant": true,
      "inputs": [],
      "name": "getKittyCount",
      "outputs": [
        {
          "name": "",
          "type": "uint256"
        }
      ],
      "payable": false,
      "stateMutability": "view",
      "type": "function"
    },
    {
      "constant": false,
      "inputs": [
        {
          "name": "_name",
          "type": "string"
        }
      ],
      "name": "createRandomKitty",
      "outputs": [],
      "payable": false,
      "stateMutability": "nonpayable",
      "type": "function"
    },
    {
      "constant": false,
      "inputs": [
        {
          "name": "_dna",
          "type": "uint256"
        }
      ],
      "name": "_createKitty",
      "outputs": [],
      "payable": false,
      "stateMutability": "nonpayable",
      "type": "function"
    },
    {
      "constant": false,
      "inputs": [
        {
          "name": "_zombieContract",
          "type": "address"
        }
      ],
      "name": "setZombieContract",
      "outputs": [],
      "payable": false,
      "stateMutability": "nonpayable",
      "type": "function"
    },
    {
      "constant": false,
      "inputs": [
        {
          "name": "_id",
          "type": "uint256"
        }
      ],
      "name": "consumeKitty",
      "outputs": [],
      "payable": false,
      "stateMutability": "nonpayable",
      "type": "function"
    },
    {
      "constant": true,
      "inputs": [
        {
          "name": "_id",
          "type": "uint256"
        }
      ],
      "name": "getKitty",
      "outputs": [
        {
          "name": "isGestating",
          "type": "bool"
        },
        {
          "name": "isReady",
          "type": "bool"
        },
        {
          "name": "cooldownIndex",
          "type": "uint256"
        },
        {
          "name": "nextActionAt",
          "type": "uint256"
        },
        {
          "name": "siringWithId",
          "type": "uint256"
        },
        {
          "name": "birthTime",
          "type": "uint256"
        },
        {
          "name": "matronId",
          "type": "uint256"
        },
        {
          "name": "sireId",
          "type": "uint256"
        },
        {
          "name": "generation",
          "type": "uint256"
        },
        {
          "name": "genes",
          "type": "uint256"
        }
      ],
      "payable": false,
      "stateMutability": "view",
      "type": "function"
    }
  ],
  "bytecode": "0x6080604052336000806101000a81548173ffffffffffffffffffffffffffffffffffffffff021916908373ffffffffffffffffffffffffffffffffffffffff1602179055506000809054906101000a900473ffffffffffffffffffffffffffffffffffffffff1673ffffffffffffffffffffffffffffffffffffffff16600073ffffffffffffffffffffffffffffffffffffffff167f8be0079c531659141344cd1fd0a4f28419497f9722a3daafe3b4186f6b6457e060405160405180910390a3610c6f806100cf6000396000f3006080604052600436106100ba576000357c0100000000000000000000000000000000000000000000000000000000900463ffffffff168063138d22ce146100bf578063227cda17146101165780633ef4852214610143578063715018a6146101705780638cc51eda146101875780638da5cb5b146101c85780638f32d59b1461021f578063adb4402b1461024e578063b0f25d6d14610291578063e98b7f4d146102fa578063ed3c692314610382578063f2fde38b146103ad575b600080fd5b3480156100cb57600080fd5b506100d46103f0565b604051808273ffffffffffffffffffffffffffffffffffffffff1673ffffffffffffffffffffffffffffffffffffffff16815260200191505060405180910390f35b34801561012257600080fd5b5061014160048036038101908080359060200190929190505050610416565b005b34801561014f57600080fd5b5061016e6004803603810190808035906020019092919050505061045f565b005b34801561017c57600080fd5b5061018561060f565b005b34801561019357600080fd5b506101b2600480360381019080803590602001909291905050506106e1565b6040518082815260200191505060405180910390f35b3480156101d457600080fd5b506101dd61070a565b604051808273ffffffffffffffffffffffffffffffffffffffff1673ffffffffffffffffffffffffffffffffffffffff16815260200191505060405180910390f35b34801561022b57600080fd5b50610234610733565b604051808215151515815260200191505060405180910390f35b34801561025a57600080fd5b5061028f600480360381019080803573ffffffffffffffffffffffffffffffffffffffff16906020019092919050505061078a565b005b34801561029d57600080fd5b506102f8600480360381019080803590602001908201803590602001908080601f016020809104026020016040519081016040528093929190818152602001838380828437820191505050505050919291929050505061094c565b005b34801561030657600080fd5b5061032560048036038101908080359060200190929190505050610966565b604051808b1515151581526020018a1515151581526020018981526020018881526020018781526020018681526020018581526020018481526020018381526020018281526020019a505050505050505050505060405180910390f35b34801561038e57600080fd5b506103976109d7565b6040518082815260200191505060405180910390f35b3480156103b957600080fd5b506103ee600480360381019080803573ffffffffffffffffffffffffffffffffffffffff1690602001909291905050506109e4565b005b600260009054906101000a900473ffffffffffffffffffffffffffffffffffffffff1681565b6001602060405190810160405280838152509080600181540180825580915050906001820390600052602060002001600090919290919091506000820151816000015550505050565b6000600260009054906101000a900473ffffffffffffffffffffffffffffffffffffffff1673ffffffffffffffffffffffffffffffffffffffff163373ffffffffffffffffffffffffffffffffffffffff16141515610526576040517f08c379a000000000000000000000000000000000000000000000000000000000815260040180806020018281038252601e8152602001807f43616c6c6572206d757374206265207a6f6d62696520636f6e7472616374000081525060200191505060405180910390fd5b600180549050821015156105a2576040517f08c379a00000000000000000000000000000000000000000000000000000000081526004018080602001828103825260108152602001807f496e76616c6964206b697474792069640000000000000000000000000000000081525060200191505060405180910390fd5b6001808054905003905080821415156105f5576001818154811015156105c457fe5b906000526020600020016001838154811015156105dd57fe5b90600052602060002001600082015481600001559050505b600180548091906001900361060a9190610bf0565b505050565b610617610733565b151561062257600080fd5b600073ffffffffffffffffffffffffffffffffffffffff166000809054906101000a900473ffffffffffffffffffffffffffffffffffffffff1673ffffffffffffffffffffffffffffffffffffffff167f8be0079c531659141344cd1fd0a4f28419497f9722a3daafe3b4186f6b6457e060405160405180910390a360008060006101000a81548173ffffffffffffffffffffffffffffffffffffffff021916908373ffffffffffffffffffffffffffffffffffffffff160217905550565b6001818154811015156106f057fe5b906000526020600020016000915090508060000154905081565b60008060009054906101000a900473ffffffffffffffffffffffffffffffffffffffff16905090565b60008060009054906101000a900473ffffffffffffffffffffffffffffffffffffffff1673ffffffffffffffffffffffffffffffffffffffff163373ffffffffffffffffffffffffffffffffffffffff1614905090565b610792610733565b151561079d57600080fd5b600073ffffffffffffffffffffffffffffffffffffffff168173ffffffffffffffffffffffffffffffffffffffff1614151515610842576040517f08c379a00000000000000000000000000000000000000000000000000000000081526004018080602001828103825260178152602001807f496e76616c6964207a6f6d62696520636f6e747261637400000000000000000081525060200191505060405180910390fd5b600073ffffffffffffffffffffffffffffffffffffffff16600260009054906101000a900473ffffffffffffffffffffffffffffffffffffffff1673ffffffffffffffffffffffffffffffffffffffff16141515610908576040517f08c379a000000000000000000000000000000000000000000000000000000000815260040180806020018281038252601b8152602001807f5a6f6d62696520636f6e747261637420616c726561647920736574000000000081525060200191505060405180910390fd5b80600260006101000a81548173ffffffffffffffffffffffffffffffffffffffff021916908373ffffffffffffffffffffffffffffffffffffffff16021790555050565b600061095782610a03565b905061096281610416565b5050565b60008060008060008060008060008060018b81548110151561098457fe5b906000526020600020016000015490506000600160008060004260008060008987975086965085955083935082925081915099509950995099509950995099509950995099509193959799509193959799565b6000600180549050905090565b6109ec610733565b15156109f757600080fd5b610a0081610af6565b50565b600080826040516020018082805190602001908083835b602083101515610a3f5780518252602082019150602081019050602083039250610a1a565b6001836020036101000a0380198251168184511680821785525050505050509050019150506040516020818303038152906040526040518082805190602001908083835b602083101515610aa85780518252602082019150602081019050602083039250610a83565b6001836020036101000a0380198251168184511680821785525050505050509050019150506040518091039020600190049050662386f26fc1000081811515610aed57fe5b06915050919050565b600073ffffffffffffffffffffffffffffffffffffffff168173ffffffffffffffffffffffffffffffffffffffff1614151515610b3257600080fd5b8073ffffffffffffffffffffffffffffffffffffffff166000809054906101000a900473ffffffffffffffffffffffffffffffffffffffff1673ffffffffffffffffffffffffffffffffffffffff167f8be0079c531659141344cd1fd0a4f28419497f9722a3daafe3b4186f6b6457e060405160405180910390a3806000806101000a81548173ffffffffffffffffffffffffffffffffffffffff021916908373ffffffffffffffffffffffffffffffffffffffff16021790555050565b815481835581811115610c1757818360005260206000209182019101610c169190610c1c565b5b505050565b610c4091905b80821115610c3c5760008082016000905550600101610c22565b5090565b905600a165627a7a723058200edbc5d9ec39835ad3e7e5a7ec2a95e0e95f99c73eb6a12fec53104f9d6f13000029",
  "source": "pragma solidity >=0.4.22 <0.9.0;\n\nimport \"./ownable.sol\";\n\ncontract KittyCore is Ownable {\n    struct Kitty {\n        uint256 dna;\n    }\n\n    Kitty[] public kitties;\n    address public zombieContract;\n\n    modifier onlyZombieContract() {\n        require(msg.sender == zombieContract, \"Caller must be zombie contract\");\n        _;\n    }\n\n    function getKittyCount() external view returns (uint256) {\n        return kitties.length;\n    }\n\n    function _generateRandomDna(string memory _str) private pure returns (uint256) {\n        uint256 rand = uint256(keccak256(abi.encodePacked(_str)));\n        return rand % (10 ** 16); // Ensure DNA is a 16-digit number\n    }\n\n    function createRandomKitty(string memory _name) public {\n        uint256 randDna = _generateRandomDna(_name);\n        _createKitty(randDna);\n    }\n\n    function _createKitty(uint256 _dna) public {\n        kitties.push(Kitty(_dna));\n    }\n\n    function setZombieContract(address _zombieContract) external onlyOwner {\n        require(_zombieContract != address(0), \"Invalid zombie contract\");\n        require(zombieContract == address(0), \"Zombie contract already set\");\n        zombieContract = _zombieContract;\n    }\n\n    function consumeKitty(uint256 _id) external onlyZombieContract {\n        require(_id < kitties.length, \"Invalid kitty id\");\n        uint256 lastIndex = kitties.length - 1;\n\n        if (_id != lastIndex) {\n            kitties[_id] = kitties[lastIndex];\n        }\n\n        kitties.length--;\n    }\n\n    function getKitty(uint256 _id) external view returns (\n        bool isGestating,\n        bool isReady,\n        uint256 cooldownIndex,\n        uint256 nextActionAt,\n        uint256 siringWithId,\n        uint256 birthTime,\n        uint256 matronId,\n        uint256 sireId,\n        uint256 generation,\n        uint256 genes\n    ) {\n        // Simplified response for compatibility with ZombieFeeding\n        genes = kitties[_id].dna;\n        return (false, true, 0, 0, 0, block.timestamp, 0, 0, 0, genes);\n    }\n}\n",
  "sourcePath": "/Users/ishan/Desktop/BlockChain/blockchain-midterm-project/contracts/KittyCore.sol",
  "compiler": {
    "name": "solc",
    "version": "0.4.25+commit.59dbf8f1.Emscripten.clang"
  },
  "schemaVersion": "3.4.16",
  "updatedAt": "2025-10-19T20:02:14.485Z",
  "networkType": "ethereum",
  "devdoc": {
    "methods": {
      "isOwner()": {
        "return": "true if `msg.sender` is the owner of the contract."
      },
      "owner()": {
        "return": "the address of the owner."
      },
      "renounceOwnership()": {
        "details": "Allows the current owner to relinquish control of the contract."
      },
      "transferOwnership(address)": {
        "details": "Allows the current owner to transfer control of the contract to a newOwner.",
        "params": {
          "newOwner": "The address to transfer ownership to."
        }
      }
    }
  },
  "userdoc": {
    "methods": {
      "renounceOwnership()": {
        "notice": "Renouncing to ownership will leave the contract without an owner. It will not be possible to call the functions with the `onlyOwner` modifier anymore."
      }
    }
  }
}