{
  "contractName": "KittyCore",
  "abi": [
    {
      "constant": true,
      "inputs": [],
      "name": "zombieContract",
      "outputs": [
        {
          "name": "",
          "type": "address"
        }
      ],
      "payable": false,
      "stateMutability": "view",
      "type": "function"
    },
    {
      "constant": false,
      "inputs": [],
      "name": "renounceOwnership",
      "outputs": [],
      "payable": false,
      "stateMutability": "nonpayable",
      "type": "function"
    },
    {
      "constant": true,
      "inputs": [
        {
          "name": "",
          "type": "uint256"
        }
      ],
      "name": "kitties",
      "outputs": [
        {
          "name": "dna",
          "type": "uint256"
        },
        {
          "name": "name",
          "type": "string"
        }
      ],
      "payable": false,
      "stateMutability": "view",
      "type": "function"
    },
    {
      "constant": true,
      "inputs": [],
      "name": "owner",
      "outputs": [
        {
          "name": "",
          "type": "address"
        }
      ],
      "payable": false,
      "stateMutability": "view",
      "type": "function"
    },
    {
      "constant": true,
      "inputs": [],
      "name": "isOwner",
      "outputs": [
        {
          "name": "",
          "type": "bool"
        }
      ],
      "payable": false,
      "stateMutability": "view",
      "type": "function"
    },
    {
      "constant": false,
      "inputs": [
        {
          "name": "newOwner",
          "type": "address"
        }
      ],
      "name": "transferOwnership",
      "outputs": [],
      "payable": false,
      "stateMutability": "nonpayable",
      "type": "function"
    },
    {
      "anonymous": false,
      "inputs": [
        {
          "indexed": true,
          "name": "previousOwner",
          "type": "address"
        },
        {
          "indexed": true,
          "name": "newOwner",
          "type": "address"
        }
      ],
      "name": "OwnershipTransferred",
      "type": "event"
    },
    {
      "constant": true,
      "inputs": [],
      "name": "getKittyCount",
      "outputs": [
        {
          "name": "",
          "type": "uint256"
        }
      ],
      "payable": false,
      "stateMutability": "view",
      "type": "function"
    },
    {
      "constant": false,
      "inputs": [
        {
          "name": "_name",
          "type": "string"
        }
      ],
      "name": "createRandomKitty",
      "outputs": [],
      "payable": false,
      "stateMutability": "nonpayable",
      "type": "function"
    },
    {
      "constant": false,
      "inputs": [
        {
          "name": "_dna",
          "type": "uint256"
        },
        {
          "name": "_name",
          "type": "string"
        }
      ],
      "name": "_createKitty",
      "outputs": [],
      "payable": false,
      "stateMutability": "nonpayable",
      "type": "function"
    },
    {
      "constant": false,
      "inputs": [
        {
          "name": "_zombieContract",
          "type": "address"
        }
      ],
      "name": "setZombieContract",
      "outputs": [],
      "payable": false,
      "stateMutability": "nonpayable",
      "type": "function"
    },
    {
      "constant": false,
      "inputs": [
        {
          "name": "_id",
          "type": "uint256"
        }
      ],
      "name": "consumeKitty",
      "outputs": [],
      "payable": false,
      "stateMutability": "nonpayable",
      "type": "function"
    },
    {
      "constant": true,
      "inputs": [
        {
          "name": "_id",
          "type": "uint256"
        }
      ],
      "name": "getKitty",
      "outputs": [
        {
          "name": "isGestating",
          "type": "bool"
        },
        {
          "name": "isReady",
          "type": "bool"
        },
        {
          "name": "cooldownIndex",
          "type": "uint256"
        },
        {
          "name": "nextActionAt",
          "type": "uint256"
        },
        {
          "name": "siringWithId",
          "type": "uint256"
        },
        {
          "name": "birthTime",
          "type": "uint256"
        },
        {
          "name": "matronId",
          "type": "uint256"
        },
        {
          "name": "sireId",
          "type": "uint256"
        },
        {
          "name": "generation",
          "type": "uint256"
        },
        {
          "name": "genes",
          "type": "uint256"
        }
      ],
      "payable": false,
      "stateMutability": "view",
      "type": "function"
    },
    {
      "constant": true,
      "inputs": [
        {
          "name": "_id",
          "type": "uint256"
        }
      ],
      "name": "getKittyMetadata",
      "outputs": [
        {
          "name": "name",
          "type": "string"
        },
        {
          "name": "dna",
          "type": "uint256"
        }
      ],
      "payable": false,
      "stateMutability": "view",
      "type": "function"
    }
  ],
  "bytecode": "0x6080604052336000806101000a81548173ffffffffffffffffffffffffffffffffffffffff021916908373ffffffffffffffffffffffffffffffffffffffff1602179055506000809054906101000a900473ffffffffffffffffffffffffffffffffffffffff1673ffffffffffffffffffffffffffffffffffffffff16600073ffffffffffffffffffffffffffffffffffffffff167f8be0079c531659141344cd1fd0a4f28419497f9722a3daafe3b4186f6b6457e060405160405180910390a36112af806100cf6000396000f3006080604052600436106100c5576000357c0100000000000000000000000000000000000000000000000000000000900463ffffffff168063138d22ce146100ca5780633ef48522146101215780635b7247c61461014e578063715018a6146101c15780638cc51eda146101d85780638da5cb5b146102855780638f32d59b146102dc578063adb4402b1461030b578063b0f25d6d1461034e578063e98b7f4d146103b7578063ed3c69231461043f578063eeb584501461046a578063f2fde38b14610517575b600080fd5b3480156100d657600080fd5b506100df61055a565b604051808273ffffffffffffffffffffffffffffffffffffffff1673ffffffffffffffffffffffffffffffffffffffff16815260200191505060405180910390f35b34801561012d57600080fd5b5061014c60048036038101908080359060200190929190505050610580565b005b34801561015a57600080fd5b506101bf60048036038101908080359060200190929190803590602001908201803590602001908080601f0160208091040260200160405190810160405280939291908181526020018383808284378201915050505050509192919290505050610798565b005b3480156101cd57600080fd5b506101d6610853565b005b3480156101e457600080fd5b5061020360048036038101908080359060200190929190505050610925565b6040518083815260200180602001828103825283818151815260200191508051906020019080838360005b8381101561024957808201518184015260208101905061022e565b50505050905090810190601f1680156102765780820380516001836020036101000a031916815260200191505b50935050505060405180910390f35b34801561029157600080fd5b5061029a6109f0565b604051808273ffffffffffffffffffffffffffffffffffffffff1673ffffffffffffffffffffffffffffffffffffffff16815260200191505060405180910390f35b3480156102e857600080fd5b506102f1610a19565b604051808215151515815260200191505060405180910390f35b34801561031757600080fd5b5061034c600480360381019080803573ffffffffffffffffffffffffffffffffffffffff169060200190929190505050610a70565b005b34801561035a57600080fd5b506103b5600480360381019080803590602001908201803590602001908080601f0160208091040260200160405190810160405280939291908181526020018383808284378201915050505050509192919290505050610c32565b005b3480156103c357600080fd5b506103e260048036038101908080359060200190929190505050610c4d565b604051808b1515151581526020018a1515151581526020018981526020018881526020018781526020018681526020018581526020018481526020018381526020018281526020019a505050505050505050505060405180910390f35b34801561044b57600080fd5b50610454610d3e565b6040518082815260200191505060405180910390f35b34801561047657600080fd5b5061049560048036038101908080359060200190929190505050610d4b565b6040518080602001838152602001828103825284818151815260200191508051906020019080838360005b838110156104db5780820151818401526020810190506104c0565b50505050905090810190601f1680156105085780820380516001836020036101000a031916815260200191505b50935050505060405180910390f35b34801561052357600080fd5b50610558600480360381019080803573ffffffffffffffffffffffffffffffffffffffff169060200190929190505050610e9a565b005b600260009054906101000a900473ffffffffffffffffffffffffffffffffffffffff1681565b6000600260009054906101000a900473ffffffffffffffffffffffffffffffffffffffff1673ffffffffffffffffffffffffffffffffffffffff163373ffffffffffffffffffffffffffffffffffffffff16141515610647576040517f08c379a000000000000000000000000000000000000000000000000000000000815260040180806020018281038252601e8152602001807f43616c6c6572206d757374206265207a6f6d62696520636f6e7472616374000081525060200191505060405180910390fd5b600180549050821015156106c3576040517f08c379a00000000000000000000000000000000000000000000000000000000081526004018080602001828103825260108152602001807f496e76616c6964206b697474792069640000000000000000000000000000000081525060200191505060405180910390fd5b600180805490500390508082141515610746576001818154811015156106e557fe5b906000526020600020906002020160018381548110151561070257fe5b906000526020600020906002020160008201548160000155600182018160010190805460018160011615610100020316600290046107419291906110a6565b509050505b60018181548110151561075557fe5b906000526020600020906002020160008082016000905560018201600061077c919061112d565b505060018054809190600190036107939190611175565b505050565b606060008251116107de576040805190810160405280600e81526020017f4e616d656c657373204b697474790000000000000000000000000000000000008152506107e0565b815b905060016040805190810160405280858152602001838152509080600181540180825580915050906001820390600052602060002090600202016000909192909190915060008201518160000155602082015181600101908051906020019061084a9291906111a7565b50505050505050565b61085b610a19565b151561086657600080fd5b600073ffffffffffffffffffffffffffffffffffffffff166000809054906101000a900473ffffffffffffffffffffffffffffffffffffffff1673ffffffffffffffffffffffffffffffffffffffff167f8be0079c531659141344cd1fd0a4f28419497f9722a3daafe3b4186f6b6457e060405160405180910390a360008060006101000a81548173ffffffffffffffffffffffffffffffffffffffff021916908373ffffffffffffffffffffffffffffffffffffffff160217905550565b60018181548110151561093457fe5b9060005260206000209060020201600091509050806000015490806001018054600181600116156101000203166002900480601f0160208091040260200160405190810160405280929190818152602001828054600181600116156101000203166002900480156109e65780601f106109bb576101008083540402835291602001916109e6565b820191906000526020600020905b8154815290600101906020018083116109c957829003601f168201915b5050505050905082565b60008060009054906101000a900473ffffffffffffffffffffffffffffffffffffffff16905090565b60008060009054906101000a900473ffffffffffffffffffffffffffffffffffffffff1673ffffffffffffffffffffffffffffffffffffffff163373ffffffffffffffffffffffffffffffffffffffff1614905090565b610a78610a19565b1515610a8357600080fd5b600073ffffffffffffffffffffffffffffffffffffffff168173ffffffffffffffffffffffffffffffffffffffff1614151515610b28576040517f08c379a00000000000000000000000000000000000000000000000000000000081526004018080602001828103825260178152602001807f496e76616c6964207a6f6d62696520636f6e747261637400000000000000000081525060200191505060405180910390fd5b600073ffffffffffffffffffffffffffffffffffffffff16600260009054906101000a900473ffffffffffffffffffffffffffffffffffffffff1673ffffffffffffffffffffffffffffffffffffffff16141515610bee576040517f08c379a000000000000000000000000000000000000000000000000000000000815260040180806020018281038252601b8152602001807f5a6f6d62696520636f6e747261637420616c726561647920736574000000000081525060200191505060405180910390fd5b80600260006101000a81548173ffffffffffffffffffffffffffffffffffffffff021916908373ffffffffffffffffffffffffffffffffffffffff16021790555050565b6000610c3d82610eb9565b9050610c498183610798565b5050565b6000806000806000806000806000806001805490508b101515610cd8576040517f08c379a00000000000000000000000000000000000000000000000000000000081526004018080602001828103825260108152602001807f496e76616c6964206b697474792069640000000000000000000000000000000081525060200191505060405180910390fd5b60018b815481101515610ce757fe5b90600052602060002090600202016000015490506000600160008060004260008060008987975086965085955083935082925081915099509950995099509950995099509950995099509193959799509193959799565b6000600180549050905090565b606060008060018054905084101515610dcc576040517f08c379a00000000000000000000000000000000000000000000000000000000081526004018080602001828103825260108152602001807f496e76616c6964206b697474792069640000000000000000000000000000000081525060200191505060405180910390fd5b600184815481101515610ddb57fe5b90600052602060002090600202019050806001018160000154818054600181600116156101000203166002900480601f016020809104026020016040519081016040528092919081815260200182805460018160011615610100020316600290048015610e895780601f10610e5e57610100808354040283529160200191610e89565b820191906000526020600020905b815481529060010190602001808311610e6c57829003601f168201915b505050505091509250925050915091565b610ea2610a19565b1515610ead57600080fd5b610eb681610fac565b50565b600080826040516020018082805190602001908083835b602083101515610ef55780518252602082019150602081019050602083039250610ed0565b6001836020036101000a0380198251168184511680821785525050505050509050019150506040516020818303038152906040526040518082805190602001908083835b602083101515610f5e5780518252602082019150602081019050602083039250610f39565b6001836020036101000a0380198251168184511680821785525050505050509050019150506040518091039020600190049050662386f26fc1000081811515610fa357fe5b06915050919050565b600073ffffffffffffffffffffffffffffffffffffffff168173ffffffffffffffffffffffffffffffffffffffff1614151515610fe857600080fd5b8073ffffffffffffffffffffffffffffffffffffffff166000809054906101000a900473ffffffffffffffffffffffffffffffffffffffff1673ffffffffffffffffffffffffffffffffffffffff167f8be0079c531659141344cd1fd0a4f28419497f9722a3daafe3b4186f6b6457e060405160405180910390a3806000806101000a81548173ffffffffffffffffffffffffffffffffffffffff021916908373ffffffffffffffffffffffffffffffffffffffff16021790555050565b828054600181600116156101000203166002900490600052602060002090601f016020900481019282601f106110df578054855561111c565b8280016001018555821561111c57600052602060002091601f016020900482015b8281111561111b578254825591600101919060010190611100565b5b5090506111299190611227565b5090565b50805460018160011615610100020316600290046000825580601f106111535750611172565b601f0160209004906000526020600020908101906111719190611227565b5b50565b8154818355818111156111a2576002028160020283600052602060002091820191016111a1919061124c565b5b505050565b828054600181600116156101000203166002900490600052602060002090601f016020900481019282601f106111e857805160ff1916838001178555611216565b82800160010185558215611216579182015b828111156112155782518255916020019190600101906111fa565b5b5090506112239190611227565b5090565b61124991905b8082111561124557600081600090555060010161122d565b5090565b90565b61128091905b8082111561127c57600080820160009055600182016000611273919061112d565b50600201611252565b5090565b905600a165627a7a7230582017773e209a23526f45b62f9af288c3d112bb3917d03b24c05decf233adeddeff0029",
  "source": "pragma solidity >=0.4.22 <0.9.0;\n\nimport \"./ownable.sol\";\n\ncontract KittyCore is Ownable {\n    struct Kitty {\n        uint256 dna;\n        string name;\n    }\n\n    Kitty[] public kitties;\n    address public zombieContract;\n\n    modifier onlyZombieContract() {\n        require(msg.sender == zombieContract, \"Caller must be zombie contract\");\n        _;\n    }\n\n    function getKittyCount() external view returns (uint256) {\n        return kitties.length;\n    }\n\n    function _generateRandomDna(string memory _str) private pure returns (uint256) {\n        uint256 rand = uint256(keccak256(abi.encodePacked(_str)));\n        return rand % (10 ** 16); // Ensure DNA is a 16-digit number\n    }\n\n    function createRandomKitty(string memory _name) public {\n        uint256 randDna = _generateRandomDna(_name);\n        _createKitty(randDna, _name);\n    }\n\n    function _createKitty(uint256 _dna, string memory _name) public {\n        string memory kittyName = bytes(_name).length > 0 ? _name : \"Nameless Kitty\";\n        kitties.push(Kitty(_dna, kittyName));\n    }\n\n    function setZombieContract(address _zombieContract) external onlyOwner {\n        require(_zombieContract != address(0), \"Invalid zombie contract\");\n        require(zombieContract == address(0), \"Zombie contract already set\");\n        zombieContract = _zombieContract;\n    }\n\n    function consumeKitty(uint256 _id) external onlyZombieContract {\n        require(_id < kitties.length, \"Invalid kitty id\");\n        uint256 lastIndex = kitties.length - 1;\n\n        if (_id != lastIndex) {\n            kitties[_id] = kitties[lastIndex];\n        }\n\n        delete kitties[lastIndex];\n        kitties.length--;\n    }\n\n    function getKitty(uint256 _id) external view returns (\n        bool isGestating,\n        bool isReady,\n        uint256 cooldownIndex,\n        uint256 nextActionAt,\n        uint256 siringWithId,\n        uint256 birthTime,\n        uint256 matronId,\n        uint256 sireId,\n        uint256 generation,\n        uint256 genes\n    ) {\n        // Simplified response for compatibility with ZombieFeeding\n        require(_id < kitties.length, \"Invalid kitty id\");\n        genes = kitties[_id].dna;\n        return (false, true, 0, 0, 0, block.timestamp, 0, 0, 0, genes);\n    }\n\n    function getKittyMetadata(uint256 _id) external view returns (string memory name, uint256 dna) {\n        require(_id < kitties.length, \"Invalid kitty id\");\n        Kitty storage kitty = kitties[_id];\n        return (kitty.name, kitty.dna);\n    }\n}\n",
  "sourcePath": "/Users/ishan/Desktop/BlockChain/blockchain-midterm-project/contracts/KittyCore.sol",
  "compiler": {
    "name": "solc",
    "version": "0.4.25+commit.59dbf8f1.Emscripten.clang"
  },
  "schemaVersion": "3.4.16",
  "updatedAt": "2025-10-19T20:13:39.010Z",
  "networkType": "ethereum",
  "devdoc": {
    "methods": {
      "isOwner()": {
        "return": "true if `msg.sender` is the owner of the contract."
      },
      "owner()": {
        "return": "the address of the owner."
      },
      "renounceOwnership()": {
        "details": "Allows the current owner to relinquish control of the contract."
      },
      "transferOwnership(address)": {
        "details": "Allows the current owner to transfer control of the contract to a newOwner.",
        "params": {
          "newOwner": "The address to transfer ownership to."
        }
      }
    }
  },
  "userdoc": {
    "methods": {
      "renounceOwnership()": {
        "notice": "Renouncing to ownership will leave the contract without an owner. It will not be possible to call the functions with the `onlyOwner` modifier anymore."
      }
    }
  }
}