{
  "contractName": "ZombieOwnership",
  "abi": [
    {
      "constant": true,
      "inputs": [
        {
          "name": "_zombieId",
          "type": "uint256"
        }
      ],
      "name": "getCurrentDna",
      "outputs": [
        {
          "name": "",
          "type": "uint256"
        }
      ],
      "payable": false,
      "stateMutability": "view",
      "type": "function"
    },
    {
      "constant": false,
      "inputs": [
        {
          "name": "_zombieId",
          "type": "uint256"
        }
      ],
      "name": "levelUp",
      "outputs": [],
      "payable": true,
      "stateMutability": "payable",
      "type": "function"
    },
    {
      "constant": false,
      "inputs": [
        {
          "name": "_zombieId",
          "type": "uint256"
        },
        {
          "name": "_kittyId",
          "type": "uint256"
        }
      ],
      "name": "feedOnKitty",
      "outputs": [],
      "payable": false,
      "stateMutability": "nonpayable",
      "type": "function"
    },
    {
      "constant": true,
      "inputs": [
        {
          "name": "_owner",
          "type": "address"
        }
      ],
      "name": "getBreedableZombies",
      "outputs": [
        {
          "name": "",
          "type": "uint256[]"
        }
      ],
      "payable": false,
      "stateMutability": "view",
      "type": "function"
    },
    {
      "constant": true,
      "inputs": [],
      "name": "getBreedingFee",
      "outputs": [
        {
          "name": "",
          "type": "uint256"
        }
      ],
      "payable": false,
      "stateMutability": "view",
      "type": "function"
    },
    {
      "constant": true,
      "inputs": [
        {
          "name": "",
          "type": "uint256"
        }
      ],
      "name": "zombies",
      "outputs": [
        {
          "name": "name",
          "type": "string"
        },
        {
          "name": "dna",
          "type": "uint256"
        },
        {
          "name": "level",
          "type": "uint32"
        },
        {
          "name": "readyTime",
          "type": "uint32"
        },
        {
          "name": "winCount",
          "type": "uint16"
        },
        {
          "name": "lossCount",
          "type": "uint16"
        }
      ],
      "payable": false,
      "stateMutability": "view",
      "type": "function"
    },
    {
      "constant": false,
      "inputs": [],
      "name": "withdraw",
      "outputs": [],
      "payable": false,
      "stateMutability": "nonpayable",
      "type": "function"
    },
    {
      "constant": true,
      "inputs": [
        {
          "name": "",
          "type": "bytes32"
        }
      ],
      "name": "parentPairOffspringCount",
      "outputs": [
        {
          "name": "",
          "type": "uint256"
        }
      ],
      "payable": false,
      "stateMutability": "view",
      "type": "function"
    },
    {
      "constant": true,
      "inputs": [
        {
          "name": "_owner",
          "type": "address"
        }
      ],
      "name": "getZombiesByOwner",
      "outputs": [
        {
          "name": "",
          "type": "uint256[]"
        }
      ],
      "payable": false,
      "stateMutability": "view",
      "type": "function"
    },
    {
      "constant": false,
      "inputs": [
        {
          "name": "_fee",
          "type": "uint256"
        }
      ],
      "name": "setBreedingFee",
      "outputs": [],
      "payable": false,
      "stateMutability": "nonpayable",
      "type": "function"
    },
    {
      "constant": true,
      "inputs": [
        {
          "name": "",
          "type": "uint256"
        }
      ],
      "name": "zombieToOwner",
      "outputs": [
        {
          "name": "",
          "type": "address"
        }
      ],
      "payable": false,
      "stateMutability": "view",
      "type": "function"
    },
    {
      "constant": false,
      "inputs": [
        {
          "name": "_address",
          "type": "address"
        }
      ],
      "name": "setKittyContractAddress",
      "outputs": [],
      "payable": false,
      "stateMutability": "nonpayable",
      "type": "function"
    },
    {
      "constant": false,
      "inputs": [
        {
          "name": "_zombieId",
          "type": "uint256"
        },
        {
          "name": "_newDna",
          "type": "uint256"
        }
      ],
      "name": "changeDna",
      "outputs": [],
      "payable": false,
      "stateMutability": "nonpayable",
      "type": "function"
    },
    {
      "constant": false,
      "inputs": [],
      "name": "renounceOwnership",
      "outputs": [],
      "payable": false,
      "stateMutability": "nonpayable",
      "type": "function"
    },
    {
      "constant": false,
      "inputs": [
        {
          "name": "_name",
          "type": "string"
        }
      ],
      "name": "createRandomZombie",
      "outputs": [],
      "payable": false,
      "stateMutability": "nonpayable",
      "type": "function"
    },
    {
      "constant": false,
      "inputs": [
        {
          "name": "_zombieId1",
          "type": "uint256"
        },
        {
          "name": "_zombieId2",
          "type": "uint256"
        }
      ],
      "name": "breedZombies",
      "outputs": [],
      "payable": true,
      "stateMutability": "payable",
      "type": "function"
    },
    {
      "constant": true,
      "inputs": [],
      "name": "owner",
      "outputs": [
        {
          "name": "",
          "type": "address"
        }
      ],
      "payable": false,
      "stateMutability": "view",
      "type": "function"
    },
    {
      "constant": true,
      "inputs": [],
      "name": "isOwner",
      "outputs": [
        {
          "name": "",
          "type": "bool"
        }
      ],
      "payable": false,
      "stateMutability": "view",
      "type": "function"
    },
    {
      "constant": false,
      "inputs": [
        {
          "name": "_zombieId",
          "type": "uint256"
        },
        {
          "name": "_newName",
          "type": "string"
        }
      ],
      "name": "changeName",
      "outputs": [],
      "payable": false,
      "stateMutability": "nonpayable",
      "type": "function"
    },
    {
      "constant": false,
      "inputs": [
        {
          "name": "_zombieId",
          "type": "uint256"
        },
        {
          "name": "_kittyId",
          "type": "uint256"
        }
      ],
      "name": "feedZombieWithKitty",
      "outputs": [],
      "payable": false,
      "stateMutability": "nonpayable",
      "type": "function"
    },
    {
      "constant": false,
      "inputs": [
        {
          "name": "_fee",
          "type": "uint256"
        }
      ],
      "name": "setLevelUpFee",
      "outputs": [],
      "payable": false,
      "stateMutability": "nonpayable",
      "type": "function"
    },
    {
      "constant": true,
      "inputs": [
        {
          "name": "_zombieId",
          "type": "uint256"
        }
      ],
      "name": "isReadyToBreed",
      "outputs": [
        {
          "name": "",
          "type": "bool"
        }
      ],
      "payable": false,
      "stateMutability": "view",
      "type": "function"
    },
    {
      "constant": false,
      "inputs": [
        {
          "name": "_zombieId",
          "type": "uint256"
        }
      ],
      "name": "levelDown",
      "outputs": [],
      "payable": true,
      "stateMutability": "payable",
      "type": "function"
    },
    {
      "constant": false,
      "inputs": [
        {
          "name": "newOwner",
          "type": "address"
        }
      ],
      "name": "transferOwnership",
      "outputs": [],
      "payable": false,
      "stateMutability": "nonpayable",
      "type": "function"
    },
    {
      "anonymous": false,
      "inputs": [
        {
          "indexed": true,
          "name": "_from",
          "type": "address"
        },
        {
          "indexed": true,
          "name": "_to",
          "type": "address"
        },
        {
          "indexed": true,
          "name": "_tokenId",
          "type": "uint256"
        }
      ],
      "name": "Transfer",
      "type": "event"
    },
    {
      "anonymous": false,
      "inputs": [
        {
          "indexed": true,
          "name": "_owner",
          "type": "address"
        },
        {
          "indexed": true,
          "name": "_approved",
          "type": "address"
        },
        {
          "indexed": true,
          "name": "_tokenId",
          "type": "uint256"
        }
      ],
      "name": "Approval",
      "type": "event"
    },
    {
      "anonymous": false,
      "inputs": [
        {
          "indexed": false,
          "name": "zombieId1",
          "type": "uint256"
        },
        {
          "indexed": false,
          "name": "zombieId2",
          "type": "uint256"
        },
        {
          "indexed": false,
          "name": "newZombieId",
          "type": "uint256"
        }
      ],
      "name": "ZombieBreeding",
      "type": "event"
    },
    {
      "anonymous": false,
      "inputs": [
        {
          "indexed": false,
          "name": "zombieId",
          "type": "uint256"
        },
        {
          "indexed": false,
          "name": "kittyId",
          "type": "uint256"
        },
        {
          "indexed": false,
          "name": "newLevel",
          "type": "uint32"
        }
      ],
      "name": "ZombieFed",
      "type": "event"
    },
    {
      "anonymous": false,
      "inputs": [
        {
          "indexed": false,
          "name": "zombieId",
          "type": "uint256"
        },
        {
          "indexed": false,
          "name": "name",
          "type": "string"
        },
        {
          "indexed": false,
          "name": "dna",
          "type": "uint256"
        }
      ],
      "name": "NewZombie",
      "type": "event"
    },
    {
      "anonymous": false,
      "inputs": [
        {
          "indexed": true,
          "name": "previousOwner",
          "type": "address"
        },
        {
          "indexed": true,
          "name": "newOwner",
          "type": "address"
        }
      ],
      "name": "OwnershipTransferred",
      "type": "event"
    },
    {
      "constant": true,
      "inputs": [
        {
          "name": "_owner",
          "type": "address"
        }
      ],
      "name": "balanceOf",
      "outputs": [
        {
          "name": "",
          "type": "uint256"
        }
      ],
      "payable": false,
      "stateMutability": "view",
      "type": "function"
    },
    {
      "constant": true,
      "inputs": [
        {
          "name": "_tokenId",
          "type": "uint256"
        }
      ],
      "name": "ownerOf",
      "outputs": [
        {
          "name": "",
          "type": "address"
        }
      ],
      "payable": false,
      "stateMutability": "view",
      "type": "function"
    },
    {
      "constant": false,
      "inputs": [
        {
          "name": "_from",
          "type": "address"
        },
        {
          "name": "_to",
          "type": "address"
        },
        {
          "name": "_tokenId",
          "type": "uint256"
        }
      ],
      "name": "transferFrom",
      "outputs": [],
      "payable": true,
      "stateMutability": "payable",
      "type": "function"
    },
    {
      "constant": false,
      "inputs": [
        {
          "name": "_approved",
          "type": "address"
        },
        {
          "name": "_tokenId",
          "type": "uint256"
        }
      ],
      "name": "approve",
      "outputs": [],
      "payable": true,
      "stateMutability": "payable",
      "type": "function"
    }
  ],
  "bytecode": "0x60806040526010600155600154600a0a6002556201518060035566038d7ea4c6800060085566071afd498d0000600955336000806101000a81548173ffffffffffffffffffffffffffffffffffffffff021916908373ffffffffffffffffffffffffffffffffffffffff1602179055506000809054906101000a900473ffffffffffffffffffffffffffffffffffffffff1673ffffffffffffffffffffffffffffffffffffffff16600073ffffffffffffffffffffffffffffffffffffffff167f8be0079c531659141344cd1fd0a4f28419497f9722a3daafe3b4186f6b6457e060405160405180910390a3613544806100fa6000396000f30060806040526004361061016a576000357c0100000000000000000000000000000000000000000000000000000000900463ffffffff168063073916361461016f578063095ea7b3146101b05780630ce90ec2146101f057806317a7f4cc146102105780631be088f9146102475780631dc28913146102df5780632052465e1461030a57806323b872dd146103fb5780633ccfd60b1461045b5780634224c2f6146104725780634412e104146104b75780634574dea51461054f578063528b7b8f1461057c5780635f4623f1146105e95780635faf28801461062c5780636352211e1461066357806370a08231146106d0578063715018a6146107275780637bff0a011461073e5780637dea2673146107a75780638da5cb5b146107d15780638f32d59b14610828578063c39cbef114610857578063c9e977c11461089c578063ccf670f8146108d3578063d3e6f49f14610900578063e14d2cee14610945578063f2fde38b14610965575b600080fd5b34801561017b57600080fd5b5061019a600480360381019080803590602001909291905050506109a8565b6040518082815260200191505060405180910390f35b6101ee600480360381019080803573ffffffffffffffffffffffffffffffffffffffff16906020019092919080359060200190929190505050610a8c565b005b61020e60048036038101908080359060200190929190505050610bac565b005b34801561021c57600080fd5b506102456004803603810190808035906020019092919080359060200190929190505050610d5d565b005b34801561025357600080fd5b50610288600480360381019080803573ffffffffffffffffffffffffffffffffffffffff169060200190929190505050610f63565b6040518080602001828103825283818151815260200191508051906020019060200280838360005b838110156102cb5780820151818401526020810190506102b0565b505050509050019250505060405180910390f35b3480156102eb57600080fd5b506102f461111b565b6040518082815260200191505060405180910390f35b34801561031657600080fd5b5061033560048036038101908080359060200190929190505050611125565b60405180806020018781526020018663ffffffff1663ffffffff1681526020018563ffffffff1663ffffffff1681526020018461ffff1661ffff1681526020018361ffff1661ffff168152602001828103825288818151815260200191508051906020019080838360005b838110156103bb5780820151818401526020810190506103a0565b50505050905090810190601f1680156103e85780820380516001836020036101000a031916815260200191505b5097505050505050505060405180910390f35b610459600480360381019080803573ffffffffffffffffffffffffffffffffffffffff169060200190929190803573ffffffffffffffffffffffffffffffffffffffff16906020019092919080359060200190929190505050611244565b005b34801561046757600080fd5b5061047061132a565b005b34801561047e57600080fd5b506104a160048036038101908080356000191690602001909291905050506113aa565b6040518082815260200191505060405180910390f35b3480156104c357600080fd5b506104f8600480360381019080803573ffffffffffffffffffffffffffffffffffffffff1690602001909291905050506113c2565b6040518080602001828103825283818151815260200191508051906020019060200280838360005b8381101561053b578082015181840152602081019050610520565b505050509050019250505060405180910390f35b34801561055b57600080fd5b5061057a600480360381019080803590602001909291905050506114f4565b005b34801561058857600080fd5b506105a760048036038101908080359060200190929190505050611511565b604051808273ffffffffffffffffffffffffffffffffffffffff1673ffffffffffffffffffffffffffffffffffffffff16815260200191505060405180910390f35b3480156105f557600080fd5b5061062a600480360381019080803573ffffffffffffffffffffffffffffffffffffffff169060200190929190505050611544565b005b34801561063857600080fd5b50610661600480360381019080803590602001909291908035906020019092919050505061159b565b005b34801561066f57600080fd5b5061068e6004803603810190808035906020019092919050505061167d565b604051808273ffffffffffffffffffffffffffffffffffffffff1673ffffffffffffffffffffffffffffffffffffffff16815260200191505060405180910390f35b3480156106dc57600080fd5b50610711600480360381019080803573ffffffffffffffffffffffffffffffffffffffff1690602001909291905050506116ba565b6040518082815260200191505060405180910390f35b34801561073357600080fd5b5061073c611703565b005b34801561074a57600080fd5b506107a5600480360381019080803590602001908201803590602001908080601f01602080910402602001604051908101604052809392919081815260200183838082843782019150505050505091929192905050506117d5565b005b6107cf6004803603810190808035906020019092919080359060200190929190505050611844565b005b3480156107dd57600080fd5b506107e6611e0f565b604051808273ffffffffffffffffffffffffffffffffffffffff1673ffffffffffffffffffffffffffffffffffffffff16815260200191505060405180910390f35b34801561083457600080fd5b5061083d611e38565b604051808215151515815260200191505060405180910390f35b34801561086357600080fd5b5061089a60048036038101908080359060200190929190803590602001908201803590602001919091929391929390505050611e8f565b005b3480156108a857600080fd5b506108d1600480360381019080803590602001909291908035906020019092919050505061200d565b005b3480156108df57600080fd5b506108fe6004803603810190808035906020019092919050505061237d565b005b34801561090c57600080fd5b5061092b6004803603810190808035906020019092919050505061239a565b604051808215151515815260200191505060405180910390f35b610963600480360381019080803590602001909291905050506123a5565b005b34801561097157600080fd5b506109a6600480360381019080803573ffffffffffffffffffffffffffffffffffffffff169060200190929190505050612556565b005b6000806004838154811015156109ba57fe5b90600052602060002090600302019050610a84816000018054600181600116156101000203166002900480601f016020809104026020016040519081016040528092919081815260200182805460018160011615610100020316600290048015610a655780601f10610a3a57610100808354040283529160200191610a65565b820191906000526020600020905b815481529060010190602001808311610a4857829003601f168201915b50505050508260020160009054906101000a900463ffffffff16612575565b915050919050565b806005600082815260200190815260200160002060009054906101000a900473ffffffffffffffffffffffffffffffffffffffff1673ffffffffffffffffffffffffffffffffffffffff163373ffffffffffffffffffffffffffffffffffffffff16141515610afa57600080fd5b82600b600084815260200190815260200160002060006101000a81548173ffffffffffffffffffffffffffffffffffffffff021916908373ffffffffffffffffffffffffffffffffffffffff160217905550818373ffffffffffffffffffffffffffffffffffffffff163373ffffffffffffffffffffffffffffffffffffffff167f8c5be1e5ebec7d5bd14f71427d1e84f3dd0314c0f7b2291e5b200ac8c7c3b92560405160405180910390a4505050565b60085434141515610bbc57600080fd5b610c066001600483815481101515610bd057fe5b906000526020600020906003020160020160009054906101000a900463ffffffff1663ffffffff166126ae90919063ffffffff16565b600482815481101515610c1557fe5b906000526020600020906003020160020160006101000a81548163ffffffff021916908363ffffffff160217905550610d36600482815481101515610c5657fe5b90600052602060002090600302016000018054600181600116156101000203166002900480601f016020809104026020016040519081016040528092919081815260200182805460018160011615610100020316600290048015610cfb5780601f10610cd057610100808354040283529160200191610cfb565b820191906000526020600020905b815481529060010190602001808311610cde57829003601f168201915b5050505050600483815481101515610d0f57fe5b906000526020600020906003020160020160009054906101000a900463ffffffff16612575565b600482815481101515610d4557fe5b90600052602060002090600302016001018190555050565b60008073ffffffffffffffffffffffffffffffffffffffff16600760009054906101000a900473ffffffffffffffffffffffffffffffffffffffff1673ffffffffffffffffffffffffffffffffffffffff1614151515610dbc57600080fd5b600760009054906101000a900473ffffffffffffffffffffffffffffffffffffffff1673ffffffffffffffffffffffffffffffffffffffff1663e98b7f4d836040518263ffffffff167c01000000000000000000000000000000000000000000000000000000000281526004018082815260200191505061014060405180830381600087803b158015610e4e57600080fd5b505af1158015610e62573d6000803e3d6000fd5b505050506040513d610140811015610e7957600080fd5b810190808051906020019092919080519060200190929190805190602001909291908051906020019092919080519060200190929190805190602001909291908051906020019092919080519060200190929190805190602001909291908051906020019092919050505090919293949596979850909192939495969750909192939495965090919293949550909192939450909192935090919250909150905080915050610f5e83826040805190810160405280600581526020017f6b697474790000000000000000000000000000000000000000000000000000008152506126d8565b505050565b60608060008060606000600660008873ffffffffffffffffffffffffffffffffffffffff1673ffffffffffffffffffffffffffffffffffffffff16815260200190815260200160002054604051908082528060200260200182016040528015610fdb5781602001602082028038833980820191505090505b50945060009350600092505b60048054905083101561108e578673ffffffffffffffffffffffffffffffffffffffff166005600085815260200190815260200160002060009054906101000a900473ffffffffffffffffffffffffffffffffffffffff1673ffffffffffffffffffffffffffffffffffffffff1614156110815782858581518110151561106a57fe5b906020019060200201818152505083806001019450505b8280600101935050610fe7565b836040519080825280602002602001820160405280156110bd5781602001602082028038833980820191505090505b509150600090505b8381101561110e5784818151811015156110db57fe5b9060200190602002015182828151811015156110f357fe5b906020019060200201818152505080806001019150506110c5565b8195505050505050919050565b6000600954905090565b60048181548110151561113457fe5b9060005260206000209060030201600091509050806000018054600181600116156101000203166002900480601f0160208091040260200160405190810160405280929190818152602001828054600181600116156101000203166002900480156111e05780601f106111b5576101008083540402835291602001916111e0565b820191906000526020600020905b8154815290600101906020018083116111c357829003601f168201915b5050505050908060010154908060020160009054906101000a900463ffffffff16908060020160049054906101000a900463ffffffff16908060020160089054906101000a900461ffff169080600201600a9054906101000a900461ffff16905086565b3373ffffffffffffffffffffffffffffffffffffffff166005600083815260200190815260200160002060009054906101000a900473ffffffffffffffffffffffffffffffffffffffff1673ffffffffffffffffffffffffffffffffffffffff16148061130f57503373ffffffffffffffffffffffffffffffffffffffff16600b600083815260200190815260200160002060009054906101000a900473ffffffffffffffffffffffffffffffffffffffff1673ffffffffffffffffffffffffffffffffffffffff16145b151561131a57600080fd5b611325838383612985565b505050565b6000611334611e38565b151561133f57600080fd5b611347611e0f565b90508073ffffffffffffffffffffffffffffffffffffffff166108fc3073ffffffffffffffffffffffffffffffffffffffff16319081150290604051600060405180830381858888f193505050501580156113a6573d6000803e3d6000fd5b5050565b600a6020528060005260406000206000915090505481565b606080600080600660008673ffffffffffffffffffffffffffffffffffffffff1673ffffffffffffffffffffffffffffffffffffffff168152602001908152602001600020546040519080825280602002602001820160405280156114365781602001602082028038833980820191505090505b50925060009150600090505b6004805490508110156114e9578473ffffffffffffffffffffffffffffffffffffffff166005600083815260200190815260200160002060009054906101000a900473ffffffffffffffffffffffffffffffffffffffff1673ffffffffffffffffffffffffffffffffffffffff1614156114dc578083838151811015156114c557fe5b906020019060200201818152505081806001019250505b8080600101915050611442565b829350505050919050565b6114fc611e38565b151561150757600080fd5b8060098190555050565b60056020528060005260406000206000915054906101000a900473ffffffffffffffffffffffffffffffffffffffff1681565b61154c611e38565b151561155757600080fd5b80600760006101000a81548173ffffffffffffffffffffffffffffffffffffffff021916908373ffffffffffffffffffffffffffffffffffffffff16021790555050565b601482816004828154811015156115ae57fe5b906000526020600020906003020160020160009054906101000a900463ffffffff1663ffffffff16101515156115e357600080fd5b836005600082815260200190815260200160002060009054906101000a900473ffffffffffffffffffffffffffffffffffffffff1673ffffffffffffffffffffffffffffffffffffffff163373ffffffffffffffffffffffffffffffffffffffff1614151561165157600080fd5b8360048681548110151561166157fe5b9060005260206000209060030201600101819055505050505050565b60006005600083815260200190815260200160002060009054906101000a900473ffffffffffffffffffffffffffffffffffffffff169050919050565b6000600660008373ffffffffffffffffffffffffffffffffffffffff1673ffffffffffffffffffffffffffffffffffffffff168152602001908152602001600020549050919050565b61170b611e38565b151561171657600080fd5b600073ffffffffffffffffffffffffffffffffffffffff166000809054906101000a900473ffffffffffffffffffffffffffffffffffffffff1673ffffffffffffffffffffffffffffffffffffffff167f8be0079c531659141344cd1fd0a4f28419497f9722a3daafe3b4186f6b6457e060405160405180910390a360008060006101000a81548173ffffffffffffffffffffffffffffffffffffffff021916908373ffffffffffffffffffffffffffffffffffffffff160217905550565b60008060068060003373ffffffffffffffffffffffffffffffffffffffff1673ffffffffffffffffffffffffffffffffffffffff1681526020019081526020016000205410151561182557600080fd5b600191506118338383612575565b905061183f8382612b63565b505050565b6000806000806000606087878082141515156118c8576040517f08c379a000000000000000000000000000000000000000000000000000000000815260040180806020018281038252601f8152602001807f43616e6e6f74206272656564207a6f6d626965207769746820697473656c660081525060200191505060405180910390fd5b6005600082815260200190815260200160002060009054906101000a900473ffffffffffffffffffffffffffffffffffffffff1673ffffffffffffffffffffffffffffffffffffffff166005600084815260200190815260200160002060009054906101000a900473ffffffffffffffffffffffffffffffffffffffff1673ffffffffffffffffffffffffffffffffffffffff161415156119f7576040517f08c379a000000000000000000000000000000000000000000000000000000000815260040180806020018281038252602d8152602001807f426f7468207a6f6d62696573206d757374206265206f776e656420627920746881526020017f652073616d6520706c617965720000000000000000000000000000000000000081525060400191505060405180910390fd5b6009543410151515611a71576040517f08c379a00000000000000000000000000000000000000000000000000000000081526004018080602001828103825260198152602001807f496e73756666696369656e74206272656564696e67206665650000000000000081525060200191505060405180910390fd5b60048a815481101515611a8057fe5b90600052602060002090600302019750600489815481101515611a9f57fe5b90600052602060002090600302019650611ab98a8a612e36565b95506004805490509450888a1015611b5c57898960405160200180838152602001828152602001925050506040516020818303038152906040526040518082805190602001908083835b602083101515611b285780518252602082019150602081019050602083039250611b03565b6001836020036101000a03801982511681845116808217855250505050505090500191505060405180910390209350611be9565b888a60405160200180838152602001828152602001925050506040516020818303038152906040526040518082805190602001908083835b602083101515611bb95780518252602082019150602081019050602083039250611b94565b6001836020036101000a038019825116818451168082178552505050505050905001915050604051809103902093505b600a60008560001916600019168152602001908152602001600020600081548092919060010191905055508760000187600001611c40600a60008860001916600019168152602001908152602001600020546130f5565b6040516020018084805460018160011615610100020316600290048015611c9e5780601f10611c7c576101008083540402835291820191611c9e565b820191906000526020600020905b815481529060010190602001808311611c8a575b5050807f5f0000000000000000000000000000000000000000000000000000000000000081525060010183805460018160011615610100020316600290048015611d1f5780601f10611cfd576101008083540402835291820191611d1f565b820191906000526020600020905b815481529060010190602001808311611d0b575b5050807f5f0000000000000000000000000000000000000000000000000000000000000081525060010182805190602001908083835b602083101515611d7a5780518252602082019150602081019050602083039250611d55565b6001836020036101000a03801982511681845116808217855250505050505090500193505050506040516020818303038152906040529250611dbc8387612b63565b7fa0e3bc0e57a71daf5f92409db9ecf51145ebe357d51e890b4c2fc1827cbb0e2a8a8a8760405180848152602001838152602001828152602001935050505060405180910390a150505050505050505050565b60008060009054906101000a900473ffffffffffffffffffffffffffffffffffffffff16905090565b60008060009054906101000a900473ffffffffffffffffffffffffffffffffffffffff1673ffffffffffffffffffffffffffffffffffffffff163373ffffffffffffffffffffffffffffffffffffffff1614905090565b60028381600482815481101515611ea257fe5b906000526020600020906003020160020160009054906101000a900463ffffffff1663ffffffff1610151515611ed757600080fd5b846005600082815260200190815260200160002060009054906101000a900473ffffffffffffffffffffffffffffffffffffffff1673ffffffffffffffffffffffffffffffffffffffff163373ffffffffffffffffffffffffffffffffffffffff16141515611f4557600080fd5b8484600488815481101515611f5657fe5b90600052602060002090600302016000019190611f749291906133f3565b50611fe185858080601f016020809104026020016040519081016040528093929190818152602001838380828437820191505050505050600488815481101515611fba57fe5b906000526020600020906003020160020160009054906101000a900463ffffffff16612575565b600487815481101515611ff057fe5b906000526020600020906003020160010181905550505050505050565b6000806000846005600082815260200190815260200160002060009054906101000a900473ffffffffffffffffffffffffffffffffffffffff1673ffffffffffffffffffffffffffffffffffffffff163373ffffffffffffffffffffffffffffffffffffffff1614151561208057600080fd5b60048681548110151561208f57fe5b906000526020600020906003020193506120a88461324c565b15156120b357600080fd5b600073ffffffffffffffffffffffffffffffffffffffff16600760009054906101000a900473ffffffffffffffffffffffffffffffffffffffff1673ffffffffffffffffffffffffffffffffffffffff161415151561211157600080fd5b600760009054906101000a900473ffffffffffffffffffffffffffffffffffffffff1673ffffffffffffffffffffffffffffffffffffffff1663e98b7f4d866040518263ffffffff167c01000000000000000000000000000000000000000000000000000000000281526004018082815260200191505061014060405180830381600087803b1580156121a357600080fd5b505af11580156121b7573d6000803e3d6000fd5b505050506040513d6101408110156121ce57600080fd5b8101908080519060200190929190805190602001909291908051906020019092919080519060200190929190805190602001909291908051906020019092919080519060200190929190805190602001909291908051906020019092919080519060200190929190505050909192939495969798509091929394959697509091929394959650909192939495509091929394509091929350909192509091509050809350506002548381151561228057fe5b06925060028385600101540181151561229557fe5b04915060636064838115156122a657fe5b0683030191508184600101819055506122e360038560020160009054906101000a900463ffffffff1663ffffffff166126ae90919063ffffffff16565b8460020160006101000a81548163ffffffff021916908363ffffffff16021790555061230e84613273565b7f513b5093b819e00a3398bf0a568390b939c3f8d6d6131c93b2d1235a569ab18c86868660020160009054906101000a900463ffffffff16604051808481526020018381526020018263ffffffff1663ffffffff168152602001935050505060405180910390a1505050505050565b612385611e38565b151561239057600080fd5b8060088190555050565b600060019050919050565b600854341415156123b557600080fd5b6123ff60016004838154811015156123c957fe5b906000526020600020906003020160020160009054906101000a900463ffffffff1663ffffffff1661329d90919063ffffffff16565b60048281548110151561240e57fe5b906000526020600020906003020160020160006101000a81548163ffffffff021916908363ffffffff16021790555061252f60048281548110151561244f57fe5b90600052602060002090600302016000018054600181600116156101000203166002900480601f0160208091040260200160405190810160405280929190818152602001828054600181600116156101000203166002900480156124f45780601f106124c9576101008083540402835291602001916124f4565b820191906000526020600020905b8154815290600101906020018083116124d757829003601f168201915b505050505060048381548110151561250857fe5b906000526020600020906003020160020160009054906101000a900463ffffffff16612575565b60048281548110151561253e57fe5b90600052602060002090600302016001018190555050565b61255e611e38565b151561256957600080fd5b612572816132c2565b50565b600080600084846040516020018083805190602001908083835b6020831015156125b4578051825260208201915060208101905060208303925061258f565b6001836020036101000a0380198251168184511680821785525050505050509050018263ffffffff1663ffffffff167c0100000000000000000000000000000000000000000000000000000000028152600401925050506040516020818303038152906040526040518082805190602001908083835b60208310151561264f578051825260208201915060208101905060208303925061262a565b6001836020036101000a03801982511681845116808217855250505050505090500191505060405180910390206001900491506002548281151561268f57fe5b06905060648181151561269e57fe5b0681039050809250505092915050565b60008082840190508363ffffffff168163ffffffff16101515156126ce57fe5b8091505092915050565b600080846005600082815260200190815260200160002060009054906101000a900473ffffffffffffffffffffffffffffffffffffffff1673ffffffffffffffffffffffffffffffffffffffff163373ffffffffffffffffffffffffffffffffffffffff1614151561274957600080fd5b60048681548110151561275857fe5b906000526020600020906003020192506127718361324c565b151561277c57600080fd5b6002548581151561278957fe5b06945060028584600101540181151561279e57fe5b04915060405160200180807f6b6974747900000000000000000000000000000000000000000000000000000081525060050190506040516020818303038152906040526040518082805190602001908083835b60208310151561281657805182526020820191506020810190506020830392506127f1565b6001836020036101000a038019825116818451168082178552505050505050905001915050604051809103902060001916846040516020018082805190602001908083835b602083101515612880578051825260208201915060208101905060208303925061285b565b6001836020036101000a0380198251168184511680821785525050505050509050019150506040516020818303038152906040526040518082805190602001908083835b6020831015156128e957805182526020820191506020810190506020830392506128c4565b6001836020036101000a038019825116818451168082178552505050505050905001915050604051809103902060001916141561293557606360648381151561292e57fe5b0683030191505b6129746040805190810160405280600681526020017f4e6f4e616d65000000000000000000000000000000000000000000000000000081525083612b63565b61297d83613273565b505050505050565b6129d86001600660008573ffffffffffffffffffffffffffffffffffffffff1673ffffffffffffffffffffffffffffffffffffffff168152602001908152602001600020546133bc90919063ffffffff16565b600660008473ffffffffffffffffffffffffffffffffffffffff1673ffffffffffffffffffffffffffffffffffffffff16815260200190815260200160002081905550612a6e6001600660003373ffffffffffffffffffffffffffffffffffffffff1673ffffffffffffffffffffffffffffffffffffffff168152602001908152602001600020546133da90919063ffffffff16565b600660003373ffffffffffffffffffffffffffffffffffffffff1673ffffffffffffffffffffffffffffffffffffffff16815260200190815260200160002081905550816005600083815260200190815260200160002060006101000a81548173ffffffffffffffffffffffffffffffffffffffff021916908373ffffffffffffffffffffffffffffffffffffffff160217905550808273ffffffffffffffffffffffffffffffffffffffff168473ffffffffffffffffffffffffffffffffffffffff167fddf252ad1be2c89b69c2b068fc378daa952ba7f163c4a11628f55a4df523b3ef60405160405180910390a4505050565b60006001600460c060405190810160405280868152602001858152602001600163ffffffff168152602001600354420163ffffffff168152602001600061ffff168152602001600061ffff16815250908060018154018082558091505090600182039060005260206000209060030201600090919290919091506000820151816000019080519060200190612bf9929190613473565b506020820151816001015560408201518160020160006101000a81548163ffffffff021916908363ffffffff16021790555060608201518160020160046101000a81548163ffffffff021916908363ffffffff16021790555060808201518160020160086101000a81548161ffff021916908361ffff16021790555060a082015181600201600a6101000a81548161ffff021916908361ffff1602179055505050039050336005600083815260200190815260200160002060006101000a81548173ffffffffffffffffffffffffffffffffffffffff021916908373ffffffffffffffffffffffffffffffffffffffff160217905550612d426001600660003373ffffffffffffffffffffffffffffffffffffffff1673ffffffffffffffffffffffffffffffffffffffff168152602001908152602001600020546133bc90919063ffffffff16565b600660003373ffffffffffffffffffffffffffffffffffffffff1673ffffffffffffffffffffffffffffffffffffffff168152602001908152602001600020819055507f88f026aacbbecc90c18411df4b1185fd8d9be2470f1962f192bf84a27d0704b78184846040518084815260200180602001838152602001828103825284818151815260200191508051906020019080838360005b83811015612df5578082015181840152602081019050612dda565b50505050905090810190601f168015612e225780820380516001836020036101000a031916815260200191505b5094505050505060405180910390a1505050565b600080600080600080600488815481101515612e4e57fe5b90600052602060002090600302019450600487815481101515612e6d57fe5b906000526020600020906003020193504233866000018760020160009054906101000a900463ffffffff16876000018860020160009054906101000a900463ffffffff16604051602001808781526020018673ffffffffffffffffffffffffffffffffffffffff1673ffffffffffffffffffffffffffffffffffffffff166c0100000000000000000000000002815260140185805460018160011615610100020316600290048015612f565780601f10612f34576101008083540402835291820191612f56565b820191906000526020600020905b815481529060010190602001808311612f42575b50508463ffffffff1663ffffffff167c010000000000000000000000000000000000000000000000000000000002815260040183805460018160011615610100020316600290048015612fe05780601f10612fbe576101008083540402835291820191612fe0565b820191906000526020600020905b815481529060010190602001808311612fcc575b50508263ffffffff1663ffffffff167c010000000000000000000000000000000000000000000000000000000002815260040196505050505050506040516020818303038152906040526040518082805190602001908083835b60208310151561305f578051825260208201915060208101905060208303925061303a565b6001836020036101000a0380198251168184511680821785525050505050509050019150506040518091039020600190049250600284600101548660010154018115156130a857fe5b0491506103e8838115156130b857fe5b06905060328110156130d757600254838115156130d157fe5b06821891505b600254828115156130e457fe5b069150819550505050505092915050565b60606000806060600080861415613143576040805190810160405280600181526020017f30000000000000000000000000000000000000000000000000000000000000008152509450613243565b8593505b60008414151561316d578280600101935050600a8481151561316557fe5b049350613147565b826040519080825280601f01601f1916602001820160405280156131a05781602001602082028038833980820191505090505b5091506001830390505b60008614151561323f57600a868115156131c057fe5b066030017f0100000000000000000000000000000000000000000000000000000000000000028282806001900393508151811015156131fb57fe5b9060200101907effffffffffffffffffffffffffffffffffffffffffffffffffffffffffffff1916908160001a905350600a8681151561323757fe5b0495506131aa565b8194505b50505050919050565b6000428260020160049054906101000a900463ffffffff1663ffffffff1611159050919050565b60035442018160020160046101000a81548163ffffffff021916908363ffffffff16021790555050565b60008263ffffffff168263ffffffff16111515156132b757fe5b818303905092915050565b600073ffffffffffffffffffffffffffffffffffffffff168173ffffffffffffffffffffffffffffffffffffffff16141515156132fe57600080fd5b8073ffffffffffffffffffffffffffffffffffffffff166000809054906101000a900473ffffffffffffffffffffffffffffffffffffffff1673ffffffffffffffffffffffffffffffffffffffff167f8be0079c531659141344cd1fd0a4f28419497f9722a3daafe3b4186f6b6457e060405160405180910390a3806000806101000a81548173ffffffffffffffffffffffffffffffffffffffff021916908373ffffffffffffffffffffffffffffffffffffffff16021790555050565b60008082840190508381101515156133d057fe5b8091505092915050565b60008282111515156133e857fe5b818303905092915050565b828054600181600116156101000203166002900490600052602060002090601f016020900481019282601f1061343457803560ff1916838001178555613462565b82800160010185558215613462579182015b82811115613461578235825591602001919060010190613446565b5b50905061346f91906134f3565b5090565b828054600181600116156101000203166002900490600052602060002090601f016020900481019282601f106134b457805160ff19168380011785556134e2565b828001600101855582156134e2579182015b828111156134e15782518255916020019190600101906134c6565b5b5090506134ef91906134f3565b5090565b61351591905b808211156135115760008160009055506001016134f9565b5090565b905600a165627a7a72305820d98fa6b6a160dd7230bba38779ab5be8d8d5fc31fc8332a7de193ca6f874d4c90029",
  "source": "pragma solidity ^0.4.25;\n\nimport \"./zombiebreeding.sol\";\nimport \"./erc721.sol\";\nimport \"./safemath.sol\";\n\ncontract ZombieOwnership is ZombieBreeding, ERC721 {\n\n  using SafeMath for uint256;\n\n  mapping (uint => address) zombieApprovals;\n\n  function balanceOf(address _owner) external view returns (uint256) {\n    return ownerZombieCount[_owner];\n  }\n\n  function ownerOf(uint256 _tokenId) external view returns (address) {\n    return zombieToOwner[_tokenId];\n  }\n\n  function _transfer(address _from, address _to, uint256 _tokenId) private {\n    ownerZombieCount[_to] = ownerZombieCount[_to].add(1);\n    ownerZombieCount[msg.sender] = ownerZombieCount[msg.sender].sub(1);\n    zombieToOwner[_tokenId] = _to;\n    emit Transfer(_from, _to, _tokenId);\n  }\n\n  function transferFrom(address _from, address _to, uint256 _tokenId) external payable {\n      require (zombieToOwner[_tokenId] == msg.sender || zombieApprovals[_tokenId] == msg.sender);\n      _transfer(_from, _to, _tokenId);\n    }\n\n  function approve(address _approved, uint256 _tokenId) external payable onlyOwnerOf(_tokenId) {\n      zombieApprovals[_tokenId] = _approved;\n      emit Approval(msg.sender, _approved, _tokenId);\n    }\n\n}\n",
  "sourcePath": "/Users/ishan/Desktop/BlockChain/blockchain-midterm-project/contracts/zombieownership.sol",
  "compiler": {
    "name": "solc",
    "version": "0.4.25+commit.59dbf8f1.Emscripten.clang"
  },
  "schemaVersion": "3.4.16",
  "updatedAt": "2025-10-19T19:29:36.619Z",
  "devdoc": {
    "methods": {
      "isOwner()": {
        "return": "true if `msg.sender` is the owner of the contract."
      },
      "owner()": {
        "return": "the address of the owner."
      },
      "renounceOwnership()": {
        "details": "Allows the current owner to relinquish control of the contract."
      },
      "transferOwnership(address)": {
        "details": "Allows the current owner to transfer control of the contract to a newOwner.",
        "params": {
          "newOwner": "The address to transfer ownership to."
        }
      }
    }
  },
  "userdoc": {
    "methods": {
      "renounceOwnership()": {
        "notice": "Renouncing to ownership will leave the contract without an owner. It will not be possible to call the functions with the `onlyOwner` modifier anymore."
      }
    }
  }
}