{
  "contractName": "ZombieOwnership",
  "abi": [
    {
      "constant": true,
      "inputs": [
        {
          "name": "_zombieId",
          "type": "uint256"
        }
      ],
      "name": "getCurrentDna",
      "outputs": [
        {
          "name": "",
          "type": "uint256"
        }
      ],
      "payable": false,
      "stateMutability": "view",
      "type": "function"
    },
    {
      "constant": false,
      "inputs": [
        {
          "name": "_zombieId",
          "type": "uint256"
        }
      ],
      "name": "levelUp",
      "outputs": [],
      "payable": true,
      "stateMutability": "payable",
      "type": "function"
    },
    {
      "constant": false,
      "inputs": [
        {
          "name": "_zombieId",
          "type": "uint256"
        },
        {
          "name": "_kittyId",
          "type": "uint256"
        }
      ],
      "name": "feedOnKitty",
      "outputs": [],
      "payable": false,
      "stateMutability": "nonpayable",
      "type": "function"
    },
    {
      "constant": true,
      "inputs": [
        {
          "name": "_owner",
          "type": "address"
        }
      ],
      "name": "getBreedableZombies",
      "outputs": [
        {
          "name": "",
          "type": "uint256[]"
        }
      ],
      "payable": false,
      "stateMutability": "view",
      "type": "function"
    },
    {
      "constant": true,
      "inputs": [],
      "name": "getBreedingFee",
      "outputs": [
        {
          "name": "",
          "type": "uint256"
        }
      ],
      "payable": false,
      "stateMutability": "view",
      "type": "function"
    },
    {
      "constant": true,
      "inputs": [
        {
          "name": "",
          "type": "uint256"
        }
      ],
      "name": "zombies",
      "outputs": [
        {
          "name": "name",
          "type": "string"
        },
        {
          "name": "dna",
          "type": "uint256"
        },
        {
          "name": "level",
          "type": "uint32"
        },
        {
          "name": "readyTime",
          "type": "uint32"
        },
        {
          "name": "winCount",
          "type": "uint16"
        },
        {
          "name": "lossCount",
          "type": "uint16"
        }
      ],
      "payable": false,
      "stateMutability": "view",
      "type": "function"
    },
    {
      "constant": false,
      "inputs": [],
      "name": "withdraw",
      "outputs": [],
      "payable": false,
      "stateMutability": "nonpayable",
      "type": "function"
    },
    {
      "constant": true,
      "inputs": [
        {
          "name": "",
          "type": "bytes32"
        }
      ],
      "name": "parentPairOffspringCount",
      "outputs": [
        {
          "name": "",
          "type": "uint256"
        }
      ],
      "payable": false,
      "stateMutability": "view",
      "type": "function"
    },
    {
      "constant": true,
      "inputs": [
        {
          "name": "_owner",
          "type": "address"
        }
      ],
      "name": "getZombiesByOwner",
      "outputs": [
        {
          "name": "",
          "type": "uint256[]"
        }
      ],
      "payable": false,
      "stateMutability": "view",
      "type": "function"
    },
    {
      "constant": false,
      "inputs": [
        {
          "name": "_fee",
          "type": "uint256"
        }
      ],
      "name": "setBreedingFee",
      "outputs": [],
      "payable": false,
      "stateMutability": "nonpayable",
      "type": "function"
    },
    {
      "constant": true,
      "inputs": [
        {
          "name": "",
          "type": "uint256"
        }
      ],
      "name": "zombieToOwner",
      "outputs": [
        {
          "name": "",
          "type": "address"
        }
      ],
      "payable": false,
      "stateMutability": "view",
      "type": "function"
    },
    {
      "constant": false,
      "inputs": [
        {
          "name": "_address",
          "type": "address"
        }
      ],
      "name": "setKittyContractAddress",
      "outputs": [],
      "payable": false,
      "stateMutability": "nonpayable",
      "type": "function"
    },
    {
      "constant": false,
      "inputs": [
        {
          "name": "_zombieId",
          "type": "uint256"
        },
        {
          "name": "_newDna",
          "type": "uint256"
        }
      ],
      "name": "changeDna",
      "outputs": [],
      "payable": false,
      "stateMutability": "nonpayable",
      "type": "function"
    },
    {
      "constant": false,
      "inputs": [],
      "name": "renounceOwnership",
      "outputs": [],
      "payable": false,
      "stateMutability": "nonpayable",
      "type": "function"
    },
    {
      "constant": false,
      "inputs": [
        {
          "name": "_name",
          "type": "string"
        }
      ],
      "name": "createRandomZombie",
      "outputs": [],
      "payable": false,
      "stateMutability": "nonpayable",
      "type": "function"
    },
    {
      "constant": false,
      "inputs": [
        {
          "name": "_zombieId1",
          "type": "uint256"
        },
        {
          "name": "_zombieId2",
          "type": "uint256"
        }
      ],
      "name": "breedZombies",
      "outputs": [],
      "payable": true,
      "stateMutability": "payable",
      "type": "function"
    },
    {
      "constant": true,
      "inputs": [],
      "name": "owner",
      "outputs": [
        {
          "name": "",
          "type": "address"
        }
      ],
      "payable": false,
      "stateMutability": "view",
      "type": "function"
    },
    {
      "constant": true,
      "inputs": [],
      "name": "isOwner",
      "outputs": [
        {
          "name": "",
          "type": "bool"
        }
      ],
      "payable": false,
      "stateMutability": "view",
      "type": "function"
    },
    {
      "constant": false,
      "inputs": [
        {
          "name": "_zombieId",
          "type": "uint256"
        },
        {
          "name": "_newName",
          "type": "string"
        }
      ],
      "name": "changeName",
      "outputs": [],
      "payable": false,
      "stateMutability": "nonpayable",
      "type": "function"
    },
    {
      "constant": false,
      "inputs": [
        {
          "name": "_zombieId",
          "type": "uint256"
        },
        {
          "name": "_kittyId",
          "type": "uint256"
        }
      ],
      "name": "feedZombieWithKitty",
      "outputs": [],
      "payable": false,
      "stateMutability": "nonpayable",
      "type": "function"
    },
    {
      "constant": false,
      "inputs": [
        {
          "name": "_fee",
          "type": "uint256"
        }
      ],
      "name": "setLevelUpFee",
      "outputs": [],
      "payable": false,
      "stateMutability": "nonpayable",
      "type": "function"
    },
    {
      "constant": true,
      "inputs": [
        {
          "name": "_zombieId",
          "type": "uint256"
        }
      ],
      "name": "isReadyToBreed",
      "outputs": [
        {
          "name": "",
          "type": "bool"
        }
      ],
      "payable": false,
      "stateMutability": "view",
      "type": "function"
    },
    {
      "constant": false,
      "inputs": [
        {
          "name": "_zombieId",
          "type": "uint256"
        }
      ],
      "name": "levelDown",
      "outputs": [],
      "payable": true,
      "stateMutability": "payable",
      "type": "function"
    },
    {
      "constant": false,
      "inputs": [
        {
          "name": "newOwner",
          "type": "address"
        }
      ],
      "name": "transferOwnership",
      "outputs": [],
      "payable": false,
      "stateMutability": "nonpayable",
      "type": "function"
    },
    {
      "anonymous": false,
      "inputs": [
        {
          "indexed": true,
          "name": "_from",
          "type": "address"
        },
        {
          "indexed": true,
          "name": "_to",
          "type": "address"
        },
        {
          "indexed": true,
          "name": "_tokenId",
          "type": "uint256"
        }
      ],
      "name": "Transfer",
      "type": "event"
    },
    {
      "anonymous": false,
      "inputs": [
        {
          "indexed": true,
          "name": "_owner",
          "type": "address"
        },
        {
          "indexed": true,
          "name": "_approved",
          "type": "address"
        },
        {
          "indexed": true,
          "name": "_tokenId",
          "type": "uint256"
        }
      ],
      "name": "Approval",
      "type": "event"
    },
    {
      "anonymous": false,
      "inputs": [
        {
          "indexed": false,
          "name": "zombieId1",
          "type": "uint256"
        },
        {
          "indexed": false,
          "name": "zombieId2",
          "type": "uint256"
        },
        {
          "indexed": false,
          "name": "newZombieId",
          "type": "uint256"
        }
      ],
      "name": "ZombieBreeding",
      "type": "event"
    },
    {
      "anonymous": false,
      "inputs": [
        {
          "indexed": false,
          "name": "zombieId",
          "type": "uint256"
        },
        {
          "indexed": false,
          "name": "kittyId",
          "type": "uint256"
        },
        {
          "indexed": false,
          "name": "newLevel",
          "type": "uint32"
        }
      ],
      "name": "ZombieFed",
      "type": "event"
    },
    {
      "anonymous": false,
      "inputs": [
        {
          "indexed": false,
          "name": "zombieId",
          "type": "uint256"
        },
        {
          "indexed": false,
          "name": "name",
          "type": "string"
        },
        {
          "indexed": false,
          "name": "dna",
          "type": "uint256"
        }
      ],
      "name": "NewZombie",
      "type": "event"
    },
    {
      "anonymous": false,
      "inputs": [
        {
          "indexed": true,
          "name": "previousOwner",
          "type": "address"
        },
        {
          "indexed": true,
          "name": "newOwner",
          "type": "address"
        }
      ],
      "name": "OwnershipTransferred",
      "type": "event"
    },
    {
      "constant": true,
      "inputs": [
        {
          "name": "_owner",
          "type": "address"
        }
      ],
      "name": "balanceOf",
      "outputs": [
        {
          "name": "",
          "type": "uint256"
        }
      ],
      "payable": false,
      "stateMutability": "view",
      "type": "function"
    },
    {
      "constant": true,
      "inputs": [
        {
          "name": "_tokenId",
          "type": "uint256"
        }
      ],
      "name": "ownerOf",
      "outputs": [
        {
          "name": "",
          "type": "address"
        }
      ],
      "payable": false,
      "stateMutability": "view",
      "type": "function"
    },
    {
      "constant": false,
      "inputs": [
        {
          "name": "_from",
          "type": "address"
        },
        {
          "name": "_to",
          "type": "address"
        },
        {
          "name": "_tokenId",
          "type": "uint256"
        }
      ],
      "name": "transferFrom",
      "outputs": [],
      "payable": true,
      "stateMutability": "payable",
      "type": "function"
    },
    {
      "constant": false,
      "inputs": [
        {
          "name": "_approved",
          "type": "address"
        },
        {
          "name": "_tokenId",
          "type": "uint256"
        }
      ],
      "name": "approve",
      "outputs": [],
      "payable": true,
      "stateMutability": "payable",
      "type": "function"
    }
  ],
  "bytecode": "0x60806040526010600155600154600a0a6002556201518060035566038d7ea4c6800060085566071afd498d0000600955336000806101000a81548173ffffffffffffffffffffffffffffffffffffffff021916908373ffffffffffffffffffffffffffffffffffffffff1602179055506000809054906101000a900473ffffffffffffffffffffffffffffffffffffffff1673ffffffffffffffffffffffffffffffffffffffff16600073ffffffffffffffffffffffffffffffffffffffff167f8be0079c531659141344cd1fd0a4f28419497f9722a3daafe3b4186f6b6457e060405160405180910390a361313e806100fa6000396000f30060806040526004361061016a576000357c0100000000000000000000000000000000000000000000000000000000900463ffffffff168063073916361461016f578063095ea7b3146101b05780630ce90ec2146101f057806317a7f4cc146102105780631be088f9146102475780631dc28913146102df5780632052465e1461030a57806323b872dd146103fb5780633ccfd60b1461045b5780634224c2f6146104725780634412e104146104b75780634574dea51461054f578063528b7b8f1461057c5780635f4623f1146105e95780635faf28801461062c5780636352211e1461066357806370a08231146106d0578063715018a6146107275780637bff0a011461073e5780637dea2673146107a75780638da5cb5b146107d15780638f32d59b14610828578063c39cbef114610857578063c9e977c11461089c578063ccf670f8146108d3578063d3e6f49f14610900578063e14d2cee14610945578063f2fde38b14610965575b600080fd5b34801561017b57600080fd5b5061019a600480360381019080803590602001909291905050506109a8565b6040518082815260200191505060405180910390f35b6101ee600480360381019080803573ffffffffffffffffffffffffffffffffffffffff16906020019092919080359060200190929190505050610a8c565b005b61020e60048036038101908080359060200190929190505050610bac565b005b34801561021c57600080fd5b506102456004803603810190808035906020019092919080359060200190929190505050610d5d565b005b34801561025357600080fd5b50610288600480360381019080803573ffffffffffffffffffffffffffffffffffffffff169060200190929190505050611105565b6040518080602001828103825283818151815260200191508051906020019060200280838360005b838110156102cb5780820151818401526020810190506102b0565b505050509050019250505060405180910390f35b3480156102eb57600080fd5b506102f46112bd565b6040518082815260200191505060405180910390f35b34801561031657600080fd5b50610335600480360381019080803590602001909291905050506112c7565b60405180806020018781526020018663ffffffff1663ffffffff1681526020018563ffffffff1663ffffffff1681526020018461ffff1661ffff1681526020018361ffff1661ffff168152602001828103825288818151815260200191508051906020019080838360005b838110156103bb5780820151818401526020810190506103a0565b50505050905090810190601f1680156103e85780820380516001836020036101000a031916815260200191505b5097505050505050505060405180910390f35b610459600480360381019080803573ffffffffffffffffffffffffffffffffffffffff169060200190929190803573ffffffffffffffffffffffffffffffffffffffff169060200190929190803590602001909291905050506113e6565b005b34801561046757600080fd5b506104706114cc565b005b34801561047e57600080fd5b506104a1600480360381019080803560001916906020019092919050505061154c565b6040518082815260200191505060405180910390f35b3480156104c357600080fd5b506104f8600480360381019080803573ffffffffffffffffffffffffffffffffffffffff169060200190929190505050611564565b6040518080602001828103825283818151815260200191508051906020019060200280838360005b8381101561053b578082015181840152602081019050610520565b505050509050019250505060405180910390f35b34801561055b57600080fd5b5061057a60048036038101908080359060200190929190505050611696565b005b34801561058857600080fd5b506105a7600480360381019080803590602001909291905050506116b3565b604051808273ffffffffffffffffffffffffffffffffffffffff1673ffffffffffffffffffffffffffffffffffffffff16815260200191505060405180910390f35b3480156105f557600080fd5b5061062a600480360381019080803573ffffffffffffffffffffffffffffffffffffffff1690602001909291905050506116e6565b005b34801561063857600080fd5b50610661600480360381019080803590602001909291908035906020019092919050505061173d565b005b34801561066f57600080fd5b5061068e6004803603810190808035906020019092919050505061181f565b604051808273ffffffffffffffffffffffffffffffffffffffff1673ffffffffffffffffffffffffffffffffffffffff16815260200191505060405180910390f35b3480156106dc57600080fd5b50610711600480360381019080803573ffffffffffffffffffffffffffffffffffffffff16906020019092919050505061185c565b6040518082815260200191505060405180910390f35b34801561073357600080fd5b5061073c6118a5565b005b34801561074a57600080fd5b506107a5600480360381019080803590602001908201803590602001908080601f0160208091040260200160405190810160405280939291908181526020018383808284378201915050505050509192919290505050611977565b005b6107cf60048036038101908080359060200190929190803590602001909291905050506119e6565b005b3480156107dd57600080fd5b506107e6611fb1565b604051808273ffffffffffffffffffffffffffffffffffffffff1673ffffffffffffffffffffffffffffffffffffffff16815260200191505060405180910390f35b34801561083457600080fd5b5061083d611fda565b604051808215151515815260200191505060405180910390f35b34801561086357600080fd5b5061089a60048036038101908080359060200190929190803590602001908201803590602001919091929391929390505050612031565b005b3480156108a857600080fd5b506108d160048036038101908080359060200190929190803590602001909291905050506121af565b005b3480156108df57600080fd5b506108fe6004803603810190808035906020019092919050505061222c565b005b34801561090c57600080fd5b5061092b60048036038101908080359060200190929190505050612249565b604051808215151515815260200191505060405180910390f35b61096360048036038101908080359060200190929190505050612254565b005b34801561097157600080fd5b506109a6600480360381019080803573ffffffffffffffffffffffffffffffffffffffff169060200190929190505050612405565b005b6000806004838154811015156109ba57fe5b90600052602060002090600302019050610a84816000018054600181600116156101000203166002900480601f016020809104026020016040519081016040528092919081815260200182805460018160011615610100020316600290048015610a655780601f10610a3a57610100808354040283529160200191610a65565b820191906000526020600020905b815481529060010190602001808311610a4857829003601f168201915b50505050508260020160009054906101000a900463ffffffff16612424565b915050919050565b806005600082815260200190815260200160002060009054906101000a900473ffffffffffffffffffffffffffffffffffffffff1673ffffffffffffffffffffffffffffffffffffffff163373ffffffffffffffffffffffffffffffffffffffff16141515610afa57600080fd5b82600b600084815260200190815260200160002060006101000a81548173ffffffffffffffffffffffffffffffffffffffff021916908373ffffffffffffffffffffffffffffffffffffffff160217905550818373ffffffffffffffffffffffffffffffffffffffff163373ffffffffffffffffffffffffffffffffffffffff167f8c5be1e5ebec7d5bd14f71427d1e84f3dd0314c0f7b2291e5b200ac8c7c3b92560405160405180910390a4505050565b60085434141515610bbc57600080fd5b610c066001600483815481101515610bd057fe5b906000526020600020906003020160020160009054906101000a900463ffffffff1663ffffffff1661255d90919063ffffffff16565b600482815481101515610c1557fe5b906000526020600020906003020160020160006101000a81548163ffffffff021916908363ffffffff160217905550610d36600482815481101515610c5657fe5b90600052602060002090600302016000018054600181600116156101000203166002900480601f016020809104026020016040519081016040528092919081815260200182805460018160011615610100020316600290048015610cfb5780601f10610cd057610100808354040283529160200191610cfb565b820191906000526020600020905b815481529060010190602001808311610cde57829003601f168201915b5050505050600483815481101515610d0f57fe5b906000526020600020906003020160020160009054906101000a900463ffffffff16612424565b600482815481101515610d4557fe5b90600052602060002090600302016001018190555050565b60008060008060008073ffffffffffffffffffffffffffffffffffffffff16600760009054906101000a900473ffffffffffffffffffffffffffffffffffffffff1673ffffffffffffffffffffffffffffffffffffffff1614151515610dc257600080fd5b600487815481101515610dd157fe5b90600052602060002090600302019450610dea85612587565b1515610df557600080fd5b600760009054906101000a900473ffffffffffffffffffffffffffffffffffffffff1673ffffffffffffffffffffffffffffffffffffffff1663eeb58450876040518263ffffffff167c010000000000000000000000000000000000000000000000000000000002815260040180828152602001915050600060405180830381600087803b158015610e8657600080fd5b505af1158015610e9a573d6000803e3d6000fd5b505050506040513d6000823e3d601f19601f820116820180604052506060811015610ec457600080fd5b810190808051640100000000811115610edc57600080fd5b82810190506020810184811115610ef257600080fd5b8151856001820283011164010000000082111715610f0f57600080fd5b50509291906020018051906020019092919080519060200190929190505050945094505060025484811515610f4057fe5b069150600282866001015401811515610f5557fe5b0490506063606482811515610f6657fe5b068203019050808560010181905550610fa58360ff168660020160009054906101000a900463ffffffff1663ffffffff1661255d90919063ffffffff16565b8560020160006101000a81548163ffffffff021916908363ffffffff160217905550610fd0856125ae565b600760009054906101000a900473ffffffffffffffffffffffffffffffffffffffff1673ffffffffffffffffffffffffffffffffffffffff16633ef48522876040518263ffffffff167c010000000000000000000000000000000000000000000000000000000002815260040180828152602001915050600060405180830381600087803b15801561106157600080fd5b505af1158015611075573d6000803e3d6000fd5b505050507f513b5093b819e00a3398bf0a568390b939c3f8d6d6131c93b2d1235a569ab18c878760048a8154811015156110ab57fe5b906000526020600020906003020160020160009054906101000a900463ffffffff16604051808481526020018381526020018263ffffffff1663ffffffff168152602001935050505060405180910390a150505050505050565b60608060008060606000600660008873ffffffffffffffffffffffffffffffffffffffff1673ffffffffffffffffffffffffffffffffffffffff1681526020019081526020016000205460405190808252806020026020018201604052801561117d5781602001602082028038833980820191505090505b50945060009350600092505b600480549050831015611230578673ffffffffffffffffffffffffffffffffffffffff166005600085815260200190815260200160002060009054906101000a900473ffffffffffffffffffffffffffffffffffffffff1673ffffffffffffffffffffffffffffffffffffffff1614156112235782858581518110151561120c57fe5b906020019060200201818152505083806001019450505b8280600101935050611189565b8360405190808252806020026020018201604052801561125f5781602001602082028038833980820191505090505b509150600090505b838110156112b057848181518110151561127d57fe5b90602001906020020151828281518110151561129557fe5b90602001906020020181815250508080600101915050611267565b8195505050505050919050565b6000600954905090565b6004818154811015156112d657fe5b9060005260206000209060030201600091509050806000018054600181600116156101000203166002900480601f0160208091040260200160405190810160405280929190818152602001828054600181600116156101000203166002900480156113825780601f1061135757610100808354040283529160200191611382565b820191906000526020600020905b81548152906001019060200180831161136557829003601f168201915b5050505050908060010154908060020160009054906101000a900463ffffffff16908060020160049054906101000a900463ffffffff16908060020160089054906101000a900461ffff169080600201600a9054906101000a900461ffff16905086565b3373ffffffffffffffffffffffffffffffffffffffff166005600083815260200190815260200160002060009054906101000a900473ffffffffffffffffffffffffffffffffffffffff1673ffffffffffffffffffffffffffffffffffffffff1614806114b157503373ffffffffffffffffffffffffffffffffffffffff16600b600083815260200190815260200160002060009054906101000a900473ffffffffffffffffffffffffffffffffffffffff1673ffffffffffffffffffffffffffffffffffffffff16145b15156114bc57600080fd5b6114c78383836125d4565b505050565b60006114d6611fda565b15156114e157600080fd5b6114e9611fb1565b90508073ffffffffffffffffffffffffffffffffffffffff166108fc3073ffffffffffffffffffffffffffffffffffffffff16319081150290604051600060405180830381858888f19350505050158015611548573d6000803e3d6000fd5b5050565b600a6020528060005260406000206000915090505481565b606080600080600660008673ffffffffffffffffffffffffffffffffffffffff1673ffffffffffffffffffffffffffffffffffffffff168152602001908152602001600020546040519080825280602002602001820160405280156115d85781602001602082028038833980820191505090505b50925060009150600090505b60048054905081101561168b578473ffffffffffffffffffffffffffffffffffffffff166005600083815260200190815260200160002060009054906101000a900473ffffffffffffffffffffffffffffffffffffffff1673ffffffffffffffffffffffffffffffffffffffff16141561167e5780838381518110151561166757fe5b906020019060200201818152505081806001019250505b80806001019150506115e4565b829350505050919050565b61169e611fda565b15156116a957600080fd5b8060098190555050565b60056020528060005260406000206000915054906101000a900473ffffffffffffffffffffffffffffffffffffffff1681565b6116ee611fda565b15156116f957600080fd5b80600760006101000a81548173ffffffffffffffffffffffffffffffffffffffff021916908373ffffffffffffffffffffffffffffffffffffffff16021790555050565b6014828160048281548110151561175057fe5b906000526020600020906003020160020160009054906101000a900463ffffffff1663ffffffff161015151561178557600080fd5b836005600082815260200190815260200160002060009054906101000a900473ffffffffffffffffffffffffffffffffffffffff1673ffffffffffffffffffffffffffffffffffffffff163373ffffffffffffffffffffffffffffffffffffffff161415156117f357600080fd5b8360048681548110151561180357fe5b9060005260206000209060030201600101819055505050505050565b60006005600083815260200190815260200160002060009054906101000a900473ffffffffffffffffffffffffffffffffffffffff169050919050565b6000600660008373ffffffffffffffffffffffffffffffffffffffff1673ffffffffffffffffffffffffffffffffffffffff168152602001908152602001600020549050919050565b6118ad611fda565b15156118b857600080fd5b600073ffffffffffffffffffffffffffffffffffffffff166000809054906101000a900473ffffffffffffffffffffffffffffffffffffffff1673ffffffffffffffffffffffffffffffffffffffff167f8be0079c531659141344cd1fd0a4f28419497f9722a3daafe3b4186f6b6457e060405160405180910390a360008060006101000a81548173ffffffffffffffffffffffffffffffffffffffff021916908373ffffffffffffffffffffffffffffffffffffffff160217905550565b60008060068060003373ffffffffffffffffffffffffffffffffffffffff1673ffffffffffffffffffffffffffffffffffffffff168152602001908152602001600020541015156119c757600080fd5b600191506119d58383612424565b90506119e183826127b2565b505050565b600080600080600060608787808214151515611a6a576040517f08c379a000000000000000000000000000000000000000000000000000000000815260040180806020018281038252601f8152602001807f43616e6e6f74206272656564207a6f6d626965207769746820697473656c660081525060200191505060405180910390fd5b6005600082815260200190815260200160002060009054906101000a900473ffffffffffffffffffffffffffffffffffffffff1673ffffffffffffffffffffffffffffffffffffffff166005600084815260200190815260200160002060009054906101000a900473ffffffffffffffffffffffffffffffffffffffff1673ffffffffffffffffffffffffffffffffffffffff16141515611b99576040517f08c379a000000000000000000000000000000000000000000000000000000000815260040180806020018281038252602d8152602001807f426f7468207a6f6d62696573206d757374206265206f776e656420627920746881526020017f652073616d6520706c617965720000000000000000000000000000000000000081525060400191505060405180910390fd5b6009543410151515611c13576040517f08c379a00000000000000000000000000000000000000000000000000000000081526004018080602001828103825260198152602001807f496e73756666696369656e74206272656564696e67206665650000000000000081525060200191505060405180910390fd5b60048a815481101515611c2257fe5b90600052602060002090600302019750600489815481101515611c4157fe5b90600052602060002090600302019650611c5b8a8a612a81565b95506004805490509450888a1015611cfe57898960405160200180838152602001828152602001925050506040516020818303038152906040526040518082805190602001908083835b602083101515611cca5780518252602082019150602081019050602083039250611ca5565b6001836020036101000a03801982511681845116808217855250505050505090500191505060405180910390209350611d8b565b888a60405160200180838152602001828152602001925050506040516020818303038152906040526040518082805190602001908083835b602083101515611d5b5780518252602082019150602081019050602083039250611d36565b6001836020036101000a038019825116818451168082178552505050505050905001915050604051809103902093505b600a60008560001916600019168152602001908152602001600020600081548092919060010191905055508760000187600001611de2600a6000886000191660001916815260200190815260200160002054612d40565b6040516020018084805460018160011615610100020316600290048015611e405780601f10611e1e576101008083540402835291820191611e40565b820191906000526020600020905b815481529060010190602001808311611e2c575b5050807f5f0000000000000000000000000000000000000000000000000000000000000081525060010183805460018160011615610100020316600290048015611ec15780601f10611e9f576101008083540402835291820191611ec1565b820191906000526020600020905b815481529060010190602001808311611ead575b5050807f5f0000000000000000000000000000000000000000000000000000000000000081525060010182805190602001908083835b602083101515611f1c5780518252602082019150602081019050602083039250611ef7565b6001836020036101000a03801982511681845116808217855250505050505090500193505050506040516020818303038152906040529250611f5e83876127b2565b7fa0e3bc0e57a71daf5f92409db9ecf51145ebe357d51e890b4c2fc1827cbb0e2a8a8a8760405180848152602001838152602001828152602001935050505060405180910390a150505050505050505050565b60008060009054906101000a900473ffffffffffffffffffffffffffffffffffffffff16905090565b60008060009054906101000a900473ffffffffffffffffffffffffffffffffffffffff1673ffffffffffffffffffffffffffffffffffffffff163373ffffffffffffffffffffffffffffffffffffffff1614905090565b6002838160048281548110151561204457fe5b906000526020600020906003020160020160009054906101000a900463ffffffff1663ffffffff161015151561207957600080fd5b846005600082815260200190815260200160002060009054906101000a900473ffffffffffffffffffffffffffffffffffffffff1673ffffffffffffffffffffffffffffffffffffffff163373ffffffffffffffffffffffffffffffffffffffff161415156120e757600080fd5b84846004888154811015156120f857fe5b90600052602060002090600302016000019190612116929190612fed565b5061218385858080601f01602080910402602001604051908101604052809392919081815260200183838082843782019150505050505060048881548110151561215c57fe5b906000526020600020906003020160020160009054906101000a900463ffffffff16612424565b60048781548110151561219257fe5b906000526020600020906003020160010181905550505050505050565b816005600082815260200190815260200160002060009054906101000a900473ffffffffffffffffffffffffffffffffffffffff1673ffffffffffffffffffffffffffffffffffffffff163373ffffffffffffffffffffffffffffffffffffffff1614151561221d57600080fd5b6122278383610d5d565b505050565b612234611fda565b151561223f57600080fd5b8060088190555050565b600060019050919050565b6008543414151561226457600080fd5b6122ae600160048381548110151561227857fe5b906000526020600020906003020160020160009054906101000a900463ffffffff1663ffffffff16612e9790919063ffffffff16565b6004828154811015156122bd57fe5b906000526020600020906003020160020160006101000a81548163ffffffff021916908363ffffffff1602179055506123de6004828154811015156122fe57fe5b90600052602060002090600302016000018054600181600116156101000203166002900480601f0160208091040260200160405190810160405280929190818152602001828054600181600116156101000203166002900480156123a35780601f10612378576101008083540402835291602001916123a3565b820191906000526020600020905b81548152906001019060200180831161238657829003601f168201915b50505050506004838154811015156123b757fe5b906000526020600020906003020160020160009054906101000a900463ffffffff16612424565b6004828154811015156123ed57fe5b90600052602060002090600302016001018190555050565b61240d611fda565b151561241857600080fd5b61242181612ebc565b50565b600080600084846040516020018083805190602001908083835b602083101515612463578051825260208201915060208101905060208303925061243e565b6001836020036101000a0380198251168184511680821785525050505050509050018263ffffffff1663ffffffff167c0100000000000000000000000000000000000000000000000000000000028152600401925050506040516020818303038152906040526040518082805190602001908083835b6020831015156124fe57805182526020820191506020810190506020830392506124d9565b6001836020036101000a03801982511681845116808217855250505050505090500191505060405180910390206001900491506002548281151561253e57fe5b06905060648181151561254d57fe5b0681039050809250505092915050565b60008082840190508363ffffffff168163ffffffff161015151561257d57fe5b8091505092915050565b6000428260020160049054906101000a900463ffffffff1663ffffffff1611159050919050565b428160020160046101000a81548163ffffffff021916908363ffffffff16021790555050565b6126276001600660008573ffffffffffffffffffffffffffffffffffffffff1673ffffffffffffffffffffffffffffffffffffffff16815260200190815260200160002054612fb690919063ffffffff16565b600660008473ffffffffffffffffffffffffffffffffffffffff1673ffffffffffffffffffffffffffffffffffffffff168152602001908152602001600020819055506126bd6001600660003373ffffffffffffffffffffffffffffffffffffffff1673ffffffffffffffffffffffffffffffffffffffff16815260200190815260200160002054612fd490919063ffffffff16565b600660003373ffffffffffffffffffffffffffffffffffffffff1673ffffffffffffffffffffffffffffffffffffffff16815260200190815260200160002081905550816005600083815260200190815260200160002060006101000a81548173ffffffffffffffffffffffffffffffffffffffff021916908373ffffffffffffffffffffffffffffffffffffffff160217905550808273ffffffffffffffffffffffffffffffffffffffff168473ffffffffffffffffffffffffffffffffffffffff167fddf252ad1be2c89b69c2b068fc378daa952ba7f163c4a11628f55a4df523b3ef60405160405180910390a4505050565b60006001600460c060405190810160405280868152602001858152602001600163ffffffff1681526020014263ffffffff168152602001600061ffff168152602001600061ffff1681525090806001815401808255809150509060018203906000526020600020906003020160009091929091909150600082015181600001908051906020019061284492919061306d565b506020820151816001015560408201518160020160006101000a81548163ffffffff021916908363ffffffff16021790555060608201518160020160046101000a81548163ffffffff021916908363ffffffff16021790555060808201518160020160086101000a81548161ffff021916908361ffff16021790555060a082015181600201600a6101000a81548161ffff021916908361ffff1602179055505050039050336005600083815260200190815260200160002060006101000a81548173ffffffffffffffffffffffffffffffffffffffff021916908373ffffffffffffffffffffffffffffffffffffffff16021790555061298d6001600660003373ffffffffffffffffffffffffffffffffffffffff1673ffffffffffffffffffffffffffffffffffffffff16815260200190815260200160002054612fb690919063ffffffff16565b600660003373ffffffffffffffffffffffffffffffffffffffff1673ffffffffffffffffffffffffffffffffffffffff168152602001908152602001600020819055507f88f026aacbbecc90c18411df4b1185fd8d9be2470f1962f192bf84a27d0704b78184846040518084815260200180602001838152602001828103825284818151815260200191508051906020019080838360005b83811015612a40578082015181840152602081019050612a25565b50505050905090810190601f168015612a6d5780820380516001836020036101000a031916815260200191505b5094505050505060405180910390a1505050565b600080600080600080600488815481101515612a9957fe5b90600052602060002090600302019450600487815481101515612ab857fe5b906000526020600020906003020193504233866000018760020160009054906101000a900463ffffffff16876000018860020160009054906101000a900463ffffffff16604051602001808781526020018673ffffffffffffffffffffffffffffffffffffffff1673ffffffffffffffffffffffffffffffffffffffff166c0100000000000000000000000002815260140185805460018160011615610100020316600290048015612ba15780601f10612b7f576101008083540402835291820191612ba1565b820191906000526020600020905b815481529060010190602001808311612b8d575b50508463ffffffff1663ffffffff167c010000000000000000000000000000000000000000000000000000000002815260040183805460018160011615610100020316600290048015612c2b5780601f10612c09576101008083540402835291820191612c2b565b820191906000526020600020905b815481529060010190602001808311612c17575b50508263ffffffff1663ffffffff167c010000000000000000000000000000000000000000000000000000000002815260040196505050505050506040516020818303038152906040526040518082805190602001908083835b602083101515612caa5780518252602082019150602081019050602083039250612c85565b6001836020036101000a038019825116818451168082178552505050505050905001915050604051809103902060019004925060028460010154866001015401811515612cf357fe5b0491506103e883811515612d0357fe5b0690506032811015612d225760025483811515612d1c57fe5b06821891505b60025482811515612d2f57fe5b069150819550505050505092915050565b60606000806060600080861415612d8e576040805190810160405280600181526020017f30000000000000000000000000000000000000000000000000000000000000008152509450612e8e565b8593505b600084141515612db8578280600101935050600a84811515612db057fe5b049350612d92565b826040519080825280601f01601f191660200182016040528015612deb5781602001602082028038833980820191505090505b5091506001830390505b600086141515612e8a57600a86811515612e0b57fe5b066030017f010000000000000000000000000000000000000000000000000000000000000002828280600190039350815181101515612e4657fe5b9060200101907effffffffffffffffffffffffffffffffffffffffffffffffffffffffffffff1916908160001a905350600a86811515612e8257fe5b049550612df5565b8194505b50505050919050565b60008263ffffffff168263ffffffff1611151515612eb157fe5b818303905092915050565b600073ffffffffffffffffffffffffffffffffffffffff168173ffffffffffffffffffffffffffffffffffffffff1614151515612ef857600080fd5b8073ffffffffffffffffffffffffffffffffffffffff166000809054906101000a900473ffffffffffffffffffffffffffffffffffffffff1673ffffffffffffffffffffffffffffffffffffffff167f8be0079c531659141344cd1fd0a4f28419497f9722a3daafe3b4186f6b6457e060405160405180910390a3806000806101000a81548173ffffffffffffffffffffffffffffffffffffffff021916908373ffffffffffffffffffffffffffffffffffffffff16021790555050565b6000808284019050838110151515612fca57fe5b8091505092915050565b6000828211151515612fe257fe5b818303905092915050565b828054600181600116156101000203166002900490600052602060002090601f016020900481019282601f1061302e57803560ff191683800117855561305c565b8280016001018555821561305c579182015b8281111561305b578235825591602001919060010190613040565b5b50905061306991906130ed565b5090565b828054600181600116156101000203166002900490600052602060002090601f016020900481019282601f106130ae57805160ff19168380011785556130dc565b828001600101855582156130dc579182015b828111156130db5782518255916020019190600101906130c0565b5b5090506130e991906130ed565b5090565b61310f91905b8082111561310b5760008160009055506001016130f3565b5090565b905600a165627a7a72305820824e5e957013a359ac2a3619acbea336656cfb1f906725a5c29953289618ba1a0029",
  "source": "pragma solidity ^0.4.25;\n\nimport \"./zombiebreeding.sol\";\nimport \"./erc721.sol\";\nimport \"./safemath.sol\";\n\ncontract ZombieOwnership is ZombieBreeding, ERC721 {\n\n  using SafeMath for uint256;\n\n  mapping (uint => address) zombieApprovals;\n\n  function balanceOf(address _owner) external view returns (uint256) {\n    return ownerZombieCount[_owner];\n  }\n\n  function ownerOf(uint256 _tokenId) external view returns (address) {\n    return zombieToOwner[_tokenId];\n  }\n\n  function _transfer(address _from, address _to, uint256 _tokenId) private {\n    ownerZombieCount[_to] = ownerZombieCount[_to].add(1);\n    ownerZombieCount[msg.sender] = ownerZombieCount[msg.sender].sub(1);\n    zombieToOwner[_tokenId] = _to;\n    emit Transfer(_from, _to, _tokenId);\n  }\n\n  function transferFrom(address _from, address _to, uint256 _tokenId) external payable {\n      require (zombieToOwner[_tokenId] == msg.sender || zombieApprovals[_tokenId] == msg.sender);\n      _transfer(_from, _to, _tokenId);\n    }\n\n  function approve(address _approved, uint256 _tokenId) external payable onlyOwnerOf(_tokenId) {\n      zombieApprovals[_tokenId] = _approved;\n      emit Approval(msg.sender, _approved, _tokenId);\n    }\n\n}\n",
  "sourcePath": "/Users/ishan/Desktop/BlockChain/blockchain-midterm-project/contracts/zombieownership.sol",
  "compiler": {
    "name": "solc",
    "version": "0.4.25+commit.59dbf8f1.Emscripten.clang"
  },
  "schemaVersion": "3.4.16",
  "updatedAt": "2025-10-19T21:26:36.245Z",
  "networkType": "ethereum",
  "devdoc": {
    "methods": {
      "isOwner()": {
        "return": "true if `msg.sender` is the owner of the contract."
      },
      "owner()": {
        "return": "the address of the owner."
      },
      "renounceOwnership()": {
        "details": "Allows the current owner to relinquish control of the contract."
      },
      "transferOwnership(address)": {
        "details": "Allows the current owner to transfer control of the contract to a newOwner.",
        "params": {
          "newOwner": "The address to transfer ownership to."
        }
      }
    }
  },
  "userdoc": {
    "methods": {
      "renounceOwnership()": {
        "notice": "Renouncing to ownership will leave the contract without an owner. It will not be possible to call the functions with the `onlyOwner` modifier anymore."
      }
    }
  }
}