{
  "contractName": "ZombieHelper",
  "abi": [
    {
      "constant": true,
      "inputs": [
        {
          "name": "_zombieId",
          "type": "uint256"
        }
      ],
      "name": "getCurrentDna",
      "outputs": [
        {
          "name": "",
          "type": "uint256"
        }
      ],
      "payable": false,
      "stateMutability": "view",
      "type": "function"
    },
    {
      "constant": false,
      "inputs": [
        {
          "name": "_zombieId",
          "type": "uint256"
        },
        {
          "name": "_kittyId",
          "type": "uint256"
        }
      ],
      "name": "feedOnKitty",
      "outputs": [],
      "payable": false,
      "stateMutability": "nonpayable",
      "type": "function"
    },
    {
      "constant": true,
      "inputs": [
        {
          "name": "",
          "type": "uint256"
        }
      ],
      "name": "zombies",
      "outputs": [
        {
          "name": "name",
          "type": "string"
        },
        {
          "name": "dna",
          "type": "uint256"
        },
        {
          "name": "level",
          "type": "uint32"
        },
        {
          "name": "readyTime",
          "type": "uint32"
        },
        {
          "name": "winCount",
          "type": "uint16"
        },
        {
          "name": "lossCount",
          "type": "uint16"
        }
      ],
      "payable": false,
      "stateMutability": "view",
      "type": "function"
    },
    {
      "constant": true,
      "inputs": [
        {
          "name": "",
          "type": "uint256"
        }
      ],
      "name": "zombieToOwner",
      "outputs": [
        {
          "name": "",
          "type": "address"
        }
      ],
      "payable": false,
      "stateMutability": "view",
      "type": "function"
    },
    {
      "constant": false,
      "inputs": [
        {
          "name": "_address",
          "type": "address"
        }
      ],
      "name": "setKittyContractAddress",
      "outputs": [],
      "payable": false,
      "stateMutability": "nonpayable",
      "type": "function"
    },
    {
      "constant": false,
      "inputs": [],
      "name": "renounceOwnership",
      "outputs": [],
      "payable": false,
      "stateMutability": "nonpayable",
      "type": "function"
    },
    {
      "constant": false,
      "inputs": [
        {
          "name": "_name",
          "type": "string"
        }
      ],
      "name": "createRandomZombie",
      "outputs": [],
      "payable": false,
      "stateMutability": "nonpayable",
      "type": "function"
    },
    {
      "constant": true,
      "inputs": [],
      "name": "owner",
      "outputs": [
        {
          "name": "",
          "type": "address"
        }
      ],
      "payable": false,
      "stateMutability": "view",
      "type": "function"
    },
    {
      "constant": true,
      "inputs": [],
      "name": "isOwner",
      "outputs": [
        {
          "name": "",
          "type": "bool"
        }
      ],
      "payable": false,
      "stateMutability": "view",
      "type": "function"
    },
    {
      "constant": false,
      "inputs": [
        {
          "name": "_zombieId",
          "type": "uint256"
        },
        {
          "name": "_kittyId",
          "type": "uint256"
        }
      ],
      "name": "feedZombieWithKitty",
      "outputs": [],
      "payable": false,
      "stateMutability": "nonpayable",
      "type": "function"
    },
    {
      "constant": false,
      "inputs": [
        {
          "name": "newOwner",
          "type": "address"
        }
      ],
      "name": "transferOwnership",
      "outputs": [],
      "payable": false,
      "stateMutability": "nonpayable",
      "type": "function"
    },
    {
      "anonymous": false,
      "inputs": [
        {
          "indexed": false,
          "name": "zombieId",
          "type": "uint256"
        },
        {
          "indexed": false,
          "name": "kittyId",
          "type": "uint256"
        },
        {
          "indexed": false,
          "name": "newLevel",
          "type": "uint32"
        }
      ],
      "name": "ZombieFed",
      "type": "event"
    },
    {
      "anonymous": false,
      "inputs": [
        {
          "indexed": false,
          "name": "zombieId",
          "type": "uint256"
        },
        {
          "indexed": false,
          "name": "name",
          "type": "string"
        },
        {
          "indexed": false,
          "name": "dna",
          "type": "uint256"
        }
      ],
      "name": "NewZombie",
      "type": "event"
    },
    {
      "anonymous": false,
      "inputs": [
        {
          "indexed": true,
          "name": "previousOwner",
          "type": "address"
        },
        {
          "indexed": true,
          "name": "newOwner",
          "type": "address"
        }
      ],
      "name": "OwnershipTransferred",
      "type": "event"
    },
    {
      "constant": false,
      "inputs": [],
      "name": "withdraw",
      "outputs": [],
      "payable": false,
      "stateMutability": "nonpayable",
      "type": "function"
    },
    {
      "constant": false,
      "inputs": [
        {
          "name": "_fee",
          "type": "uint256"
        }
      ],
      "name": "setLevelUpFee",
      "outputs": [],
      "payable": false,
      "stateMutability": "nonpayable",
      "type": "function"
    },
    {
      "constant": false,
      "inputs": [
        {
          "name": "_zombieId",
          "type": "uint256"
        }
      ],
      "name": "levelUp",
      "outputs": [],
      "payable": true,
      "stateMutability": "payable",
      "type": "function"
    },
    {
      "constant": false,
      "inputs": [
        {
          "name": "_zombieId",
          "type": "uint256"
        }
      ],
      "name": "levelDown",
      "outputs": [],
      "payable": true,
      "stateMutability": "payable",
      "type": "function"
    },
    {
      "constant": false,
      "inputs": [
        {
          "name": "_zombieId",
          "type": "uint256"
        },
        {
          "name": "_newName",
          "type": "string"
        }
      ],
      "name": "changeName",
      "outputs": [],
      "payable": false,
      "stateMutability": "nonpayable",
      "type": "function"
    },
    {
      "constant": false,
      "inputs": [
        {
          "name": "_zombieId",
          "type": "uint256"
        },
        {
          "name": "_newDna",
          "type": "uint256"
        }
      ],
      "name": "changeDna",
      "outputs": [],
      "payable": false,
      "stateMutability": "nonpayable",
      "type": "function"
    },
    {
      "constant": true,
      "inputs": [
        {
          "name": "_owner",
          "type": "address"
        }
      ],
      "name": "getZombiesByOwner",
      "outputs": [
        {
          "name": "",
          "type": "uint256[]"
        }
      ],
      "payable": false,
      "stateMutability": "view",
      "type": "function"
    }
  ],
  "bytecode": "0x60806040526010600155600154600a0a6002556201518060035566038d7ea4c68000600855336000806101000a81548173ffffffffffffffffffffffffffffffffffffffff021916908373ffffffffffffffffffffffffffffffffffffffff1602179055506000809054906101000a900473ffffffffffffffffffffffffffffffffffffffff1673ffffffffffffffffffffffffffffffffffffffff16600073ffffffffffffffffffffffffffffffffffffffff167f8be0079c531659141344cd1fd0a4f28419497f9722a3daafe3b4186f6b6457e060405160405180910390a3612168806100ef6000396000f3006080604052600436106100fc576000357c0100000000000000000000000000000000000000000000000000000000900463ffffffff16806307391636146101015780630ce90ec21461014257806317a7f4cc146101625780632052465e146101995780633ccfd60b1461028a5780634412e104146102a1578063528b7b8f146103395780635f4623f1146103a65780635faf2880146103e9578063715018a6146104205780637bff0a01146104375780638da5cb5b146104a05780638f32d59b146104f7578063c39cbef114610526578063c9e977c11461056b578063ccf670f8146105a2578063e14d2cee146105cf578063f2fde38b146105ef575b600080fd5b34801561010d57600080fd5b5061012c60048036038101908080359060200190929190505050610632565b6040518082815260200191505060405180910390f35b61016060048036038101908080359060200190929190505050610716565b005b34801561016e57600080fd5b5061019760048036038101908080359060200190929190803590602001909291905050506108c7565b005b3480156101a557600080fd5b506101c460048036038101908080359060200190929190505050610acd565b60405180806020018781526020018663ffffffff1663ffffffff1681526020018563ffffffff1663ffffffff1681526020018461ffff1661ffff1681526020018361ffff1661ffff168152602001828103825288818151815260200191508051906020019080838360005b8381101561024a57808201518184015260208101905061022f565b50505050905090810190601f1680156102775780820380516001836020036101000a031916815260200191505b5097505050505050505060405180910390f35b34801561029657600080fd5b5061029f610bec565b005b3480156102ad57600080fd5b506102e2600480360381019080803573ffffffffffffffffffffffffffffffffffffffff169060200190929190505050610c6c565b6040518080602001828103825283818151815260200191508051906020019060200280838360005b8381101561032557808201518184015260208101905061030a565b505050509050019250505060405180910390f35b34801561034557600080fd5b5061036460048036038101908080359060200190929190505050610d9e565b604051808273ffffffffffffffffffffffffffffffffffffffff1673ffffffffffffffffffffffffffffffffffffffff16815260200191505060405180910390f35b3480156103b257600080fd5b506103e7600480360381019080803573ffffffffffffffffffffffffffffffffffffffff169060200190929190505050610dd1565b005b3480156103f557600080fd5b5061041e6004803603810190808035906020019092919080359060200190929190505050610e28565b005b34801561042c57600080fd5b50610435610f0a565b005b34801561044357600080fd5b5061049e600480360381019080803590602001908201803590602001908080601f0160208091040260200160405190810160405280939291908181526020018383808284378201915050505050509192919290505050610fdc565b005b3480156104ac57600080fd5b506104b561104b565b604051808273ffffffffffffffffffffffffffffffffffffffff1673ffffffffffffffffffffffffffffffffffffffff16815260200191505060405180910390f35b34801561050357600080fd5b5061050c611074565b604051808215151515815260200191505060405180910390f35b34801561053257600080fd5b50610569600480360381019080803590602001909291908035906020019082018035906020019190919293919293905050506110cb565b005b34801561057757600080fd5b506105a06004803603810190808035906020019092919080359060200190929190505050611249565b005b3480156105ae57600080fd5b506105cd600480360381019080803590602001909291905050506115b9565b005b6105ed600480360381019080803590602001909291905050506115d6565b005b3480156105fb57600080fd5b50610630600480360381019080803573ffffffffffffffffffffffffffffffffffffffff169060200190929190505050611787565b005b60008060048381548110151561064457fe5b9060005260206000209060030201905061070e816000018054600181600116156101000203166002900480601f0160208091040260200160405190810160405280929190818152602001828054600181600116156101000203166002900480156106ef5780601f106106c4576101008083540402835291602001916106ef565b820191906000526020600020905b8154815290600101906020018083116106d257829003601f168201915b50505050508260020160009054906101000a900463ffffffff166117a6565b915050919050565b6008543414151561072657600080fd5b610770600160048381548110151561073a57fe5b906000526020600020906003020160020160009054906101000a900463ffffffff1663ffffffff166118df90919063ffffffff16565b60048281548110151561077f57fe5b906000526020600020906003020160020160006101000a81548163ffffffff021916908363ffffffff1602179055506108a06004828154811015156107c057fe5b90600052602060002090600302016000018054600181600116156101000203166002900480601f0160208091040260200160405190810160405280929190818152602001828054600181600116156101000203166002900480156108655780601f1061083a57610100808354040283529160200191610865565b820191906000526020600020905b81548152906001019060200180831161084857829003601f168201915b505050505060048381548110151561087957fe5b906000526020600020906003020160020160009054906101000a900463ffffffff166117a6565b6004828154811015156108af57fe5b90600052602060002090600302016001018190555050565b60008073ffffffffffffffffffffffffffffffffffffffff16600760009054906101000a900473ffffffffffffffffffffffffffffffffffffffff1673ffffffffffffffffffffffffffffffffffffffff161415151561092657600080fd5b600760009054906101000a900473ffffffffffffffffffffffffffffffffffffffff1673ffffffffffffffffffffffffffffffffffffffff1663e98b7f4d836040518263ffffffff167c01000000000000000000000000000000000000000000000000000000000281526004018082815260200191505061014060405180830381600087803b1580156109b857600080fd5b505af11580156109cc573d6000803e3d6000fd5b505050506040513d6101408110156109e357600080fd5b810190808051906020019092919080519060200190929190805190602001909291908051906020019092919080519060200190929190805190602001909291908051906020019092919080519060200190929190805190602001909291908051906020019092919050505090919293949596979850909192939495969750909192939495965090919293949550909192939450909192935090919250909150905080915050610ac883826040805190810160405280600581526020017f6b69747479000000000000000000000000000000000000000000000000000000815250611909565b505050565b600481815481101515610adc57fe5b9060005260206000209060030201600091509050806000018054600181600116156101000203166002900480601f016020809104026020016040519081016040528092919081815260200182805460018160011615610100020316600290048015610b885780601f10610b5d57610100808354040283529160200191610b88565b820191906000526020600020905b815481529060010190602001808311610b6b57829003601f168201915b5050505050908060010154908060020160009054906101000a900463ffffffff16908060020160049054906101000a900463ffffffff16908060020160089054906101000a900461ffff169080600201600a9054906101000a900461ffff16905086565b6000610bf6611074565b1515610c0157600080fd5b610c0961104b565b90508073ffffffffffffffffffffffffffffffffffffffff166108fc3073ffffffffffffffffffffffffffffffffffffffff16319081150290604051600060405180830381858888f19350505050158015610c68573d6000803e3d6000fd5b5050565b606080600080600660008673ffffffffffffffffffffffffffffffffffffffff1673ffffffffffffffffffffffffffffffffffffffff16815260200190815260200160002054604051908082528060200260200182016040528015610ce05781602001602082028038833980820191505090505b50925060009150600090505b600480549050811015610d93578473ffffffffffffffffffffffffffffffffffffffff166005600083815260200190815260200160002060009054906101000a900473ffffffffffffffffffffffffffffffffffffffff1673ffffffffffffffffffffffffffffffffffffffff161415610d8657808383815181101515610d6f57fe5b906020019060200201818152505081806001019250505b8080600101915050610cec565b829350505050919050565b60056020528060005260406000206000915054906101000a900473ffffffffffffffffffffffffffffffffffffffff1681565b610dd9611074565b1515610de457600080fd5b80600760006101000a81548173ffffffffffffffffffffffffffffffffffffffff021916908373ffffffffffffffffffffffffffffffffffffffff16021790555050565b60148281600482815481101515610e3b57fe5b906000526020600020906003020160020160009054906101000a900463ffffffff1663ffffffff1610151515610e7057600080fd5b836005600082815260200190815260200160002060009054906101000a900473ffffffffffffffffffffffffffffffffffffffff1673ffffffffffffffffffffffffffffffffffffffff163373ffffffffffffffffffffffffffffffffffffffff16141515610ede57600080fd5b83600486815481101515610eee57fe5b9060005260206000209060030201600101819055505050505050565b610f12611074565b1515610f1d57600080fd5b600073ffffffffffffffffffffffffffffffffffffffff166000809054906101000a900473ffffffffffffffffffffffffffffffffffffffff1673ffffffffffffffffffffffffffffffffffffffff167f8be0079c531659141344cd1fd0a4f28419497f9722a3daafe3b4186f6b6457e060405160405180910390a360008060006101000a81548173ffffffffffffffffffffffffffffffffffffffff021916908373ffffffffffffffffffffffffffffffffffffffff160217905550565b60008060068060003373ffffffffffffffffffffffffffffffffffffffff1673ffffffffffffffffffffffffffffffffffffffff1681526020019081526020016000205410151561102c57600080fd5b6001915061103a83836117a6565b90506110468382611bb6565b505050565b60008060009054906101000a900473ffffffffffffffffffffffffffffffffffffffff16905090565b60008060009054906101000a900473ffffffffffffffffffffffffffffffffffffffff1673ffffffffffffffffffffffffffffffffffffffff163373ffffffffffffffffffffffffffffffffffffffff1614905090565b600283816004828154811015156110de57fe5b906000526020600020906003020160020160009054906101000a900463ffffffff1663ffffffff161015151561111357600080fd5b846005600082815260200190815260200160002060009054906101000a900473ffffffffffffffffffffffffffffffffffffffff1673ffffffffffffffffffffffffffffffffffffffff163373ffffffffffffffffffffffffffffffffffffffff1614151561118157600080fd5b848460048881548110151561119257fe5b906000526020600020906003020160000191906111b0929190612017565b5061121d85858080601f0160208091040260200160405190810160405280939291908181526020018383808284378201915050505050506004888154811015156111f657fe5b906000526020600020906003020160020160009054906101000a900463ffffffff166117a6565b60048781548110151561122c57fe5b906000526020600020906003020160010181905550505050505050565b6000806000846005600082815260200190815260200160002060009054906101000a900473ffffffffffffffffffffffffffffffffffffffff1673ffffffffffffffffffffffffffffffffffffffff163373ffffffffffffffffffffffffffffffffffffffff161415156112bc57600080fd5b6004868154811015156112cb57fe5b906000526020600020906003020193506112e484611e89565b15156112ef57600080fd5b600073ffffffffffffffffffffffffffffffffffffffff16600760009054906101000a900473ffffffffffffffffffffffffffffffffffffffff1673ffffffffffffffffffffffffffffffffffffffff161415151561134d57600080fd5b600760009054906101000a900473ffffffffffffffffffffffffffffffffffffffff1673ffffffffffffffffffffffffffffffffffffffff1663e98b7f4d866040518263ffffffff167c01000000000000000000000000000000000000000000000000000000000281526004018082815260200191505061014060405180830381600087803b1580156113df57600080fd5b505af11580156113f3573d6000803e3d6000fd5b505050506040513d61014081101561140a57600080fd5b810190808051906020019092919080519060200190929190805190602001909291908051906020019092919080519060200190929190805190602001909291908051906020019092919080519060200190929190805190602001909291908051906020019092919050505090919293949596979850909192939495969750909192939495965090919293949550909192939450909192935090919250909150905080935050600254838115156114bc57fe5b0692506002838560010154018115156114d157fe5b04915060636064838115156114e257fe5b06830301915081846001018190555061151f60038560020160009054906101000a900463ffffffff1663ffffffff166118df90919063ffffffff16565b8460020160006101000a81548163ffffffff021916908363ffffffff16021790555061154a84611eb0565b7f513b5093b819e00a3398bf0a568390b939c3f8d6d6131c93b2d1235a569ab18c86868660020160009054906101000a900463ffffffff16604051808481526020018381526020018263ffffffff1663ffffffff168152602001935050505060405180910390a1505050505050565b6115c1611074565b15156115cc57600080fd5b8060088190555050565b600854341415156115e657600080fd5b61163060016004838154811015156115fa57fe5b906000526020600020906003020160020160009054906101000a900463ffffffff1663ffffffff16611eda90919063ffffffff16565b60048281548110151561163f57fe5b906000526020600020906003020160020160006101000a81548163ffffffff021916908363ffffffff16021790555061176060048281548110151561168057fe5b90600052602060002090600302016000018054600181600116156101000203166002900480601f0160208091040260200160405190810160405280929190818152602001828054600181600116156101000203166002900480156117255780601f106116fa57610100808354040283529160200191611725565b820191906000526020600020905b81548152906001019060200180831161170857829003601f168201915b505050505060048381548110151561173957fe5b906000526020600020906003020160020160009054906101000a900463ffffffff166117a6565b60048281548110151561176f57fe5b90600052602060002090600302016001018190555050565b61178f611074565b151561179a57600080fd5b6117a381611eff565b50565b600080600084846040516020018083805190602001908083835b6020831015156117e557805182526020820191506020810190506020830392506117c0565b6001836020036101000a0380198251168184511680821785525050505050509050018263ffffffff1663ffffffff167c0100000000000000000000000000000000000000000000000000000000028152600401925050506040516020818303038152906040526040518082805190602001908083835b602083101515611880578051825260208201915060208101905060208303925061185b565b6001836020036101000a0380198251168184511680821785525050505050509050019150506040518091039020600190049150600254828115156118c057fe5b0690506064818115156118cf57fe5b0681039050809250505092915050565b60008082840190508363ffffffff168163ffffffff16101515156118ff57fe5b8091505092915050565b600080846005600082815260200190815260200160002060009054906101000a900473ffffffffffffffffffffffffffffffffffffffff1673ffffffffffffffffffffffffffffffffffffffff163373ffffffffffffffffffffffffffffffffffffffff1614151561197a57600080fd5b60048681548110151561198957fe5b906000526020600020906003020192506119a283611e89565b15156119ad57600080fd5b600254858115156119ba57fe5b0694506002858460010154018115156119cf57fe5b04915060405160200180807f6b6974747900000000000000000000000000000000000000000000000000000081525060050190506040516020818303038152906040526040518082805190602001908083835b602083101515611a475780518252602082019150602081019050602083039250611a22565b6001836020036101000a038019825116818451168082178552505050505050905001915050604051809103902060001916846040516020018082805190602001908083835b602083101515611ab15780518252602082019150602081019050602083039250611a8c565b6001836020036101000a0380198251168184511680821785525050505050509050019150506040516020818303038152906040526040518082805190602001908083835b602083101515611b1a5780518252602082019150602081019050602083039250611af5565b6001836020036101000a0380198251168184511680821785525050505050509050019150506040518091039020600019161415611b66576063606483811515611b5f57fe5b0683030191505b611ba56040805190810160405280600681526020017f4e6f4e616d65000000000000000000000000000000000000000000000000000081525083611bb6565b611bae83611eb0565b505050505050565b60006001600460c060405190810160405280868152602001858152602001600163ffffffff168152602001600354420163ffffffff168152602001600061ffff168152602001600061ffff16815250908060018154018082558091505090600182039060005260206000209060030201600090919290919091506000820151816000019080519060200190611c4c929190612097565b506020820151816001015560408201518160020160006101000a81548163ffffffff021916908363ffffffff16021790555060608201518160020160046101000a81548163ffffffff021916908363ffffffff16021790555060808201518160020160086101000a81548161ffff021916908361ffff16021790555060a082015181600201600a6101000a81548161ffff021916908361ffff1602179055505050039050336005600083815260200190815260200160002060006101000a81548173ffffffffffffffffffffffffffffffffffffffff021916908373ffffffffffffffffffffffffffffffffffffffff160217905550611d956001600660003373ffffffffffffffffffffffffffffffffffffffff1673ffffffffffffffffffffffffffffffffffffffff16815260200190815260200160002054611ff990919063ffffffff16565b600660003373ffffffffffffffffffffffffffffffffffffffff1673ffffffffffffffffffffffffffffffffffffffff168152602001908152602001600020819055507f88f026aacbbecc90c18411df4b1185fd8d9be2470f1962f192bf84a27d0704b78184846040518084815260200180602001838152602001828103825284818151815260200191508051906020019080838360005b83811015611e48578082015181840152602081019050611e2d565b50505050905090810190601f168015611e755780820380516001836020036101000a031916815260200191505b5094505050505060405180910390a1505050565b6000428260020160049054906101000a900463ffffffff1663ffffffff1611159050919050565b60035442018160020160046101000a81548163ffffffff021916908363ffffffff16021790555050565b60008263ffffffff168263ffffffff1611151515611ef457fe5b818303905092915050565b600073ffffffffffffffffffffffffffffffffffffffff168173ffffffffffffffffffffffffffffffffffffffff1614151515611f3b57600080fd5b8073ffffffffffffffffffffffffffffffffffffffff166000809054906101000a900473ffffffffffffffffffffffffffffffffffffffff1673ffffffffffffffffffffffffffffffffffffffff167f8be0079c531659141344cd1fd0a4f28419497f9722a3daafe3b4186f6b6457e060405160405180910390a3806000806101000a81548173ffffffffffffffffffffffffffffffffffffffff021916908373ffffffffffffffffffffffffffffffffffffffff16021790555050565b600080828401905083811015151561200d57fe5b8091505092915050565b828054600181600116156101000203166002900490600052602060002090601f016020900481019282601f1061205857803560ff1916838001178555612086565b82800160010185558215612086579182015b8281111561208557823582559160200191906001019061206a565b5b5090506120939190612117565b5090565b828054600181600116156101000203166002900490600052602060002090601f016020900481019282601f106120d857805160ff1916838001178555612106565b82800160010185558215612106579182015b828111156121055782518255916020019190600101906120ea565b5b5090506121139190612117565b5090565b61213991905b8082111561213557600081600090555060010161211d565b5090565b905600a165627a7a72305820dc606317caf686c5a4c4c2f030fb3b7b30da7dc1456a93f532ec6f3172b9bc210029",
  "source": "pragma solidity >=0.4.22 <0.9.0;\n\nimport \"./zombiefeeding.sol\";\n\ncontract ZombieHelper is ZombieFeeding {\n    uint levelUpFee = 0.001 ether;\n\n    modifier aboveLevel(uint _level, uint _zombieId) {\n        require(zombies[_zombieId].level >= _level);\n        _;\n    }\n\n    function withdraw() external onlyOwner {\n        address _owner = owner();\n        _owner.transfer(address(this).balance);\n    }\n\n    function setLevelUpFee(uint _fee) external onlyOwner {\n        levelUpFee = _fee;\n    }\n\n    function levelUp(uint _zombieId) external payable {\n        require(msg.value == levelUpFee);\n        zombies[_zombieId].level = zombies[_zombieId].level.add(1);\n        \n        // Update DNA based on new level\n        zombies[_zombieId].dna = _generateDnaFromNameAndLevel(zombies[_zombieId].name, zombies[_zombieId].level);\n    }\n\n    function levelDown(uint _zombieId) external payable {\n        require(msg.value == levelUpFee);\n        zombies[_zombieId].level = zombies[_zombieId].level.sub(1);\n        \n        // Update DNA based on new level\n        zombies[_zombieId].dna = _generateDnaFromNameAndLevel(zombies[_zombieId].name, zombies[_zombieId].level);\n    }\n\n    function changeName(\n        uint _zombieId,\n        string _newName\n    ) external aboveLevel(2, _zombieId) onlyOwnerOf(_zombieId) {\n        zombies[_zombieId].name = _newName;\n        \n        // Update DNA based on new name and current level\n        zombies[_zombieId].dna = _generateDnaFromNameAndLevel(_newName, zombies[_zombieId].level);\n    }\n\n    function changeDna(\n        uint _zombieId,\n        uint _newDna\n    ) external aboveLevel(20, _zombieId) onlyOwnerOf(_zombieId) {\n        zombies[_zombieId].dna = _newDna;\n    }\n\n    function getZombiesByOwner(address _owner) external view returns (uint[]) {\n        uint[] memory result = new uint[](ownerZombieCount[_owner]);\n        uint counter = 0;\n        for (uint i = 0; i < zombies.length; i++) {\n            if (zombieToOwner[i] == _owner) {\n                result[counter] = i;\n                counter++;\n            }\n        }\n        return result;\n    }\n}\n",
  "sourcePath": "/Users/ishan/Desktop/BlockChain/blockchain-midterm-project/contracts/zombiehelper.sol",
  "compiler": {
    "name": "solc",
    "version": "0.4.25+commit.59dbf8f1.Emscripten.clang"
  },
  "schemaVersion": "3.4.16",
  "updatedAt": "2025-10-19T19:29:36.616Z",
  "devdoc": {
    "methods": {
      "isOwner()": {
        "return": "true if `msg.sender` is the owner of the contract."
      },
      "owner()": {
        "return": "the address of the owner."
      },
      "renounceOwnership()": {
        "details": "Allows the current owner to relinquish control of the contract."
      },
      "transferOwnership(address)": {
        "details": "Allows the current owner to transfer control of the contract to a newOwner.",
        "params": {
          "newOwner": "The address to transfer ownership to."
        }
      }
    }
  },
  "userdoc": {
    "methods": {
      "renounceOwnership()": {
        "notice": "Renouncing to ownership will leave the contract without an owner. It will not be possible to call the functions with the `onlyOwner` modifier anymore."
      }
    }
  }
}