{
  "contractName": "ZombieFeeding",
  "abi": [
    {
      "constant": true,
      "inputs": [
        {
          "name": "_zombieId",
          "type": "uint256"
        }
      ],
      "name": "getCurrentDna",
      "outputs": [
        {
          "name": "",
          "type": "uint256"
        }
      ],
      "payable": false,
      "stateMutability": "view",
      "type": "function"
    },
    {
      "constant": true,
      "inputs": [
        {
          "name": "",
          "type": "uint256"
        }
      ],
      "name": "zombies",
      "outputs": [
        {
          "name": "name",
          "type": "string"
        },
        {
          "name": "dna",
          "type": "uint256"
        },
        {
          "name": "level",
          "type": "uint32"
        },
        {
          "name": "readyTime",
          "type": "uint32"
        },
        {
          "name": "winCount",
          "type": "uint16"
        },
        {
          "name": "lossCount",
          "type": "uint16"
        }
      ],
      "payable": false,
      "stateMutability": "view",
      "type": "function"
    },
    {
      "constant": true,
      "inputs": [
        {
          "name": "",
          "type": "uint256"
        }
      ],
      "name": "zombieToOwner",
      "outputs": [
        {
          "name": "",
          "type": "address"
        }
      ],
      "payable": false,
      "stateMutability": "view",
      "type": "function"
    },
    {
      "constant": false,
      "inputs": [],
      "name": "renounceOwnership",
      "outputs": [],
      "payable": false,
      "stateMutability": "nonpayable",
      "type": "function"
    },
    {
      "constant": false,
      "inputs": [
        {
          "name": "_name",
          "type": "string"
        }
      ],
      "name": "createRandomZombie",
      "outputs": [],
      "payable": false,
      "stateMutability": "nonpayable",
      "type": "function"
    },
    {
      "constant": true,
      "inputs": [],
      "name": "owner",
      "outputs": [
        {
          "name": "",
          "type": "address"
        }
      ],
      "payable": false,
      "stateMutability": "view",
      "type": "function"
    },
    {
      "constant": true,
      "inputs": [],
      "name": "isOwner",
      "outputs": [
        {
          "name": "",
          "type": "bool"
        }
      ],
      "payable": false,
      "stateMutability": "view",
      "type": "function"
    },
    {
      "constant": false,
      "inputs": [
        {
          "name": "newOwner",
          "type": "address"
        }
      ],
      "name": "transferOwnership",
      "outputs": [],
      "payable": false,
      "stateMutability": "nonpayable",
      "type": "function"
    },
    {
      "anonymous": false,
      "inputs": [
        {
          "indexed": false,
          "name": "zombieId",
          "type": "uint256"
        },
        {
          "indexed": false,
          "name": "kittyId",
          "type": "uint256"
        },
        {
          "indexed": false,
          "name": "newLevel",
          "type": "uint32"
        }
      ],
      "name": "ZombieFed",
      "type": "event"
    },
    {
      "anonymous": false,
      "inputs": [
        {
          "indexed": false,
          "name": "zombieId",
          "type": "uint256"
        },
        {
          "indexed": false,
          "name": "name",
          "type": "string"
        },
        {
          "indexed": false,
          "name": "dna",
          "type": "uint256"
        }
      ],
      "name": "NewZombie",
      "type": "event"
    },
    {
      "anonymous": false,
      "inputs": [
        {
          "indexed": true,
          "name": "previousOwner",
          "type": "address"
        },
        {
          "indexed": true,
          "name": "newOwner",
          "type": "address"
        }
      ],
      "name": "OwnershipTransferred",
      "type": "event"
    },
    {
      "constant": false,
      "inputs": [
        {
          "name": "_address",
          "type": "address"
        }
      ],
      "name": "setKittyContractAddress",
      "outputs": [],
      "payable": false,
      "stateMutability": "nonpayable",
      "type": "function"
    },
    {
      "constant": false,
      "inputs": [
        {
          "name": "_zombieId",
          "type": "uint256"
        },
        {
          "name": "_kittyId",
          "type": "uint256"
        }
      ],
      "name": "feedOnKitty",
      "outputs": [],
      "payable": false,
      "stateMutability": "nonpayable",
      "type": "function"
    },
    {
      "constant": false,
      "inputs": [
        {
          "name": "_zombieId",
          "type": "uint256"
        },
        {
          "name": "_kittyId",
          "type": "uint256"
        }
      ],
      "name": "feedZombieWithKitty",
      "outputs": [],
      "payable": false,
      "stateMutability": "nonpayable",
      "type": "function"
    }
  ],
  "bytecode": "0x60806040526010600155600154600a0a60025562015180600355336000806101000a81548173ffffffffffffffffffffffffffffffffffffffff021916908373ffffffffffffffffffffffffffffffffffffffff1602179055506000809054906101000a900473ffffffffffffffffffffffffffffffffffffffff1673ffffffffffffffffffffffffffffffffffffffff16600073ffffffffffffffffffffffffffffffffffffffff167f8be0079c531659141344cd1fd0a4f28419497f9722a3daafe3b4186f6b6457e060405160405180910390a36115e2806100e46000396000f3006080604052600436106100af576000357c0100000000000000000000000000000000000000000000000000000000900463ffffffff16806307391636146100b457806317a7f4cc146100f55780632052465e1461012c578063528b7b8f1461021d5780635f4623f11461028a578063715018a6146102cd5780637bff0a01146102e45780638da5cb5b1461034d5780638f32d59b146103a4578063c9e977c1146103d3578063f2fde38b1461040a575b600080fd5b3480156100c057600080fd5b506100df6004803603810190808035906020019092919050505061044d565b6040518082815260200191505060405180910390f35b34801561010157600080fd5b5061012a6004803603810190808035906020019092919080359060200190929190505050610531565b005b34801561013857600080fd5b5061015760048036038101908080359060200190929190505050610863565b60405180806020018781526020018663ffffffff1663ffffffff1681526020018563ffffffff1663ffffffff1681526020018461ffff1661ffff1681526020018361ffff1661ffff168152602001828103825288818151815260200191508051906020019080838360005b838110156101dd5780820151818401526020810190506101c2565b50505050905090810190601f16801561020a5780820380516001836020036101000a031916815260200191505b5097505050505050505060405180910390f35b34801561022957600080fd5b5061024860048036038101908080359060200190929190505050610982565b604051808273ffffffffffffffffffffffffffffffffffffffff1673ffffffffffffffffffffffffffffffffffffffff16815260200191505060405180910390f35b34801561029657600080fd5b506102cb600480360381019080803573ffffffffffffffffffffffffffffffffffffffff1690602001909291905050506109b5565b005b3480156102d957600080fd5b506102e2610a0c565b005b3480156102f057600080fd5b5061034b600480360381019080803590602001908201803590602001908080601f0160208091040260200160405190810160405280939291908181526020018383808284378201915050505050509192919290505050610ade565b005b34801561035957600080fd5b50610362610b4d565b604051808273ffffffffffffffffffffffffffffffffffffffff1673ffffffffffffffffffffffffffffffffffffffff16815260200191505060405180910390f35b3480156103b057600080fd5b506103b9610b76565b604051808215151515815260200191505060405180910390f35b3480156103df57600080fd5b506104086004803603810190808035906020019092919080359060200190929190505050610bcd565b005b34801561041657600080fd5b5061044b600480360381019080803573ffffffffffffffffffffffffffffffffffffffff169060200190929190505050610c4a565b005b60008060048381548110151561045f57fe5b90600052602060002090600302019050610529816000018054600181600116156101000203166002900480601f01602080910402602001604051908101604052809291908181526020018280546001816001161561010002031660029004801561050a5780601f106104df5761010080835404028352916020019161050a565b820191906000526020600020905b8154815290600101906020018083116104ed57829003601f168201915b50505050508260020160009054906101000a900463ffffffff16610c69565b915050919050565b60008073ffffffffffffffffffffffffffffffffffffffff16600760009054906101000a900473ffffffffffffffffffffffffffffffffffffffff1673ffffffffffffffffffffffffffffffffffffffff161415151561059057600080fd5b600760009054906101000a900473ffffffffffffffffffffffffffffffffffffffff1673ffffffffffffffffffffffffffffffffffffffff1663e98b7f4d836040518263ffffffff167c01000000000000000000000000000000000000000000000000000000000281526004018082815260200191505061014060405180830381600087803b15801561062257600080fd5b505af1158015610636573d6000803e3d6000fd5b505050506040513d61014081101561064d57600080fd5b81019080805190602001909291908051906020019092919080519060200190929190805190602001909291908051906020019092919080519060200190929190805190602001909291908051906020019092919080519060200190929190805190602001909291905050509091929394959697985090919293949596975090919293949596509091929394955090919293945090919293509091925090915090508091505061073283826040805190810160405280600581526020017f6b69747479000000000000000000000000000000000000000000000000000000815250610da2565b600760009054906101000a900473ffffffffffffffffffffffffffffffffffffffff1673ffffffffffffffffffffffffffffffffffffffff16633ef48522836040518263ffffffff167c010000000000000000000000000000000000000000000000000000000002815260040180828152602001915050600060405180830381600087803b1580156107c357600080fd5b505af11580156107d7573d6000803e3d6000fd5b505050507f513b5093b819e00a3398bf0a568390b939c3f8d6d6131c93b2d1235a569ab18c838360048681548110151561080d57fe5b906000526020600020906003020160020160009054906101000a900463ffffffff16604051808481526020018381526020018263ffffffff1663ffffffff168152602001935050505060405180910390a1505050565b60048181548110151561087257fe5b9060005260206000209060030201600091509050806000018054600181600116156101000203166002900480601f01602080910402602001604051908101604052809291908181526020018280546001816001161561010002031660029004801561091e5780601f106108f35761010080835404028352916020019161091e565b820191906000526020600020905b81548152906001019060200180831161090157829003601f168201915b5050505050908060010154908060020160009054906101000a900463ffffffff16908060020160049054906101000a900463ffffffff16908060020160089054906101000a900461ffff169080600201600a9054906101000a900461ffff16905086565b60056020528060005260406000206000915054906101000a900473ffffffffffffffffffffffffffffffffffffffff1681565b6109bd610b76565b15156109c857600080fd5b80600760006101000a81548173ffffffffffffffffffffffffffffffffffffffff021916908373ffffffffffffffffffffffffffffffffffffffff16021790555050565b610a14610b76565b1515610a1f57600080fd5b600073ffffffffffffffffffffffffffffffffffffffff166000809054906101000a900473ffffffffffffffffffffffffffffffffffffffff1673ffffffffffffffffffffffffffffffffffffffff167f8be0079c531659141344cd1fd0a4f28419497f9722a3daafe3b4186f6b6457e060405160405180910390a360008060006101000a81548173ffffffffffffffffffffffffffffffffffffffff021916908373ffffffffffffffffffffffffffffffffffffffff160217905550565b60008060068060003373ffffffffffffffffffffffffffffffffffffffff1673ffffffffffffffffffffffffffffffffffffffff16815260200190815260200160002054101515610b2e57600080fd5b60019150610b3c8383610c69565b9050610b4883826110b3565b505050565b60008060009054906101000a900473ffffffffffffffffffffffffffffffffffffffff16905090565b60008060009054906101000a900473ffffffffffffffffffffffffffffffffffffffff1673ffffffffffffffffffffffffffffffffffffffff163373ffffffffffffffffffffffffffffffffffffffff1614905090565b816005600082815260200190815260200160002060009054906101000a900473ffffffffffffffffffffffffffffffffffffffff1673ffffffffffffffffffffffffffffffffffffffff163373ffffffffffffffffffffffffffffffffffffffff16141515610c3b57600080fd5b610c458383610531565b505050565b610c52610b76565b1515610c5d57600080fd5b610c6681611382565b50565b600080600084846040516020018083805190602001908083835b602083101515610ca85780518252602082019150602081019050602083039250610c83565b6001836020036101000a0380198251168184511680821785525050505050509050018263ffffffff1663ffffffff167c0100000000000000000000000000000000000000000000000000000000028152600401925050506040516020818303038152906040526040518082805190602001908083835b602083101515610d435780518252602082019150602081019050602083039250610d1e565b6001836020036101000a038019825116818451168082178552505050505050905001915050604051809103902060019004915060025482811515610d8357fe5b069050606481811515610d9257fe5b0681039050809250505092915050565b6000806000856005600082815260200190815260200160002060009054906101000a900473ffffffffffffffffffffffffffffffffffffffff1673ffffffffffffffffffffffffffffffffffffffff163373ffffffffffffffffffffffffffffffffffffffff16141515610e1557600080fd5b600487815481101515610e2457fe5b90600052602060002090600302019350610e3d8461147c565b1515610e4857600080fd5b60025486811515610e5557fe5b069550600286856001015401811515610e6a57fe5b04925060405160200180807f6b6974747900000000000000000000000000000000000000000000000000000081525060050190506040516020818303038152906040526040518082805190602001908083835b602083101515610ee25780518252602082019150602081019050602083039250610ebd565b6001836020036101000a038019825116818451168082178552505050505050905001915050604051809103902060001916856040516020018082805190602001908083835b602083101515610f4c5780518252602082019150602081019050602083039250610f27565b6001836020036101000a0380198251168184511680821785525050505050509050019150506040516020818303038152906040526040518082805190602001908083835b602083101515610fb55780518252602082019150602081019050602083039250610f90565b6001836020036101000a0380198251168184511680821785525050505050509050019150506040518091039020600019161491508115611061576063606484811515610ffd57fe5b06840301925082846001018190555061103a60038560020160009054906101000a900463ffffffff1663ffffffff166114a390919063ffffffff16565b8460020160006101000a81548163ffffffff021916908363ffffffff1602179055506110a1565b6110a06040805190810160405280600681526020017f4e6f4e616d650000000000000000000000000000000000000000000000000000815250846110b3565b5b6110aa846114cd565b50505050505050565b60006001600460c060405190810160405280868152602001858152602001600163ffffffff1681526020014263ffffffff168152602001600061ffff168152602001600061ffff16815250908060018154018082558091505090600182039060005260206000209060030201600090919290919091506000820151816000019080519060200190611145929190611511565b506020820151816001015560408201518160020160006101000a81548163ffffffff021916908363ffffffff16021790555060608201518160020160046101000a81548163ffffffff021916908363ffffffff16021790555060808201518160020160086101000a81548161ffff021916908361ffff16021790555060a082015181600201600a6101000a81548161ffff021916908361ffff1602179055505050039050336005600083815260200190815260200160002060006101000a81548173ffffffffffffffffffffffffffffffffffffffff021916908373ffffffffffffffffffffffffffffffffffffffff16021790555061128e6001600660003373ffffffffffffffffffffffffffffffffffffffff1673ffffffffffffffffffffffffffffffffffffffff168152602001908152602001600020546114f390919063ffffffff16565b600660003373ffffffffffffffffffffffffffffffffffffffff1673ffffffffffffffffffffffffffffffffffffffff168152602001908152602001600020819055507f88f026aacbbecc90c18411df4b1185fd8d9be2470f1962f192bf84a27d0704b78184846040518084815260200180602001838152602001828103825284818151815260200191508051906020019080838360005b83811015611341578082015181840152602081019050611326565b50505050905090810190601f16801561136e5780820380516001836020036101000a031916815260200191505b5094505050505060405180910390a1505050565b600073ffffffffffffffffffffffffffffffffffffffff168173ffffffffffffffffffffffffffffffffffffffff16141515156113be57600080fd5b8073ffffffffffffffffffffffffffffffffffffffff166000809054906101000a900473ffffffffffffffffffffffffffffffffffffffff1673ffffffffffffffffffffffffffffffffffffffff167f8be0079c531659141344cd1fd0a4f28419497f9722a3daafe3b4186f6b6457e060405160405180910390a3806000806101000a81548173ffffffffffffffffffffffffffffffffffffffff021916908373ffffffffffffffffffffffffffffffffffffffff16021790555050565b6000428260020160049054906101000a900463ffffffff1663ffffffff1611159050919050565b60008082840190508363ffffffff168163ffffffff16101515156114c357fe5b8091505092915050565b428160020160046101000a81548163ffffffff021916908363ffffffff16021790555050565b600080828401905083811015151561150757fe5b8091505092915050565b828054600181600116156101000203166002900490600052602060002090601f016020900481019282601f1061155257805160ff1916838001178555611580565b82800160010185558215611580579182015b8281111561157f578251825591602001919060010190611564565b5b50905061158d9190611591565b5090565b6115b391905b808211156115af576000816000905550600101611597565b5090565b905600a165627a7a72305820af71cd3df95cc73378fcfe94906325e38b6c724fef7a365395c2d374bfda00f00029",
  "source": "pragma solidity >=0.4.22 <0.9.0;\n\nimport \"./zombiefactory.sol\";\nimport \"./KittyCore.sol\";\n\n/*contract KittyInterface {\n  function getKitty(uint256 _id) external view returns (\n    bool isGestating,\n    bool isReady,\n    uint256 cooldownIndex,\n    uint256 nextActionAt,\n    uint256 siringWithId,\n    uint256 birthTime,\n    uint256 matronId,\n    uint256 sireId,\n    uint256 generation,\n    uint256 genes\n  );\n}*/\n\ncontract ZombieFeeding is ZombieFactory {\n\n  KittyCore kittyContract;\n\n  event ZombieFed(uint zombieId, uint kittyId, uint32 newLevel);\n\n  modifier onlyOwnerOf(uint _zombieId) {\n    require(msg.sender == zombieToOwner[_zombieId]);\n    _;\n  }\n\n  function setKittyContractAddress(address _address) external onlyOwner {\n    kittyContract = KittyCore(_address);\n  }\n\n  function _triggerCooldown(Zombie storage _zombie) internal {\n    _zombie.readyTime = uint32(now);\n  }\n\n  function _isReady(Zombie storage _zombie) internal view returns (bool) {\n      return (_zombie.readyTime <= now);\n  }\n\n  function feedAndMultiply(uint _zombieId, uint _targetDna, string _species) internal onlyOwnerOf(_zombieId) {\n    Zombie storage myZombie = zombies[_zombieId];\n    require(_isReady(myZombie));\n    _targetDna = _targetDna % dnaModulus;\n    uint newDna = (myZombie.dna + _targetDna) / 2;\n    bool isKitty = keccak256(abi.encodePacked(_species)) == keccak256(abi.encodePacked(\"kitty\"));\n    if (isKitty) {\n      newDna = newDna - newDna % 100 + 99;\n      myZombie.dna = newDna;\n      myZombie.level = myZombie.level.add(uint32(3));\n    } else {\n      _createZombie(\"NoName\", newDna);\n    }\n    _triggerCooldown(myZombie);\n  }\n\n  function feedOnKitty(uint _zombieId, uint _kittyId) public {\n    require(address(kittyContract) != address(0));\n    uint kittyDna;\n    (,,,,,,,,,kittyDna) = kittyContract.getKitty(_kittyId);\n    feedAndMultiply(_zombieId, kittyDna, \"kitty\");\n    kittyContract.consumeKitty(_kittyId);\n    emit ZombieFed(_zombieId, _kittyId, zombies[_zombieId].level);\n  }\n\n  function feedZombieWithKitty(uint _zombieId, uint _kittyId) external onlyOwnerOf(_zombieId) {\n    feedOnKitty(_zombieId, _kittyId);\n  }\n}\n",
  "sourcePath": "/Users/ishan/Desktop/BlockChain/blockchain-midterm-project/contracts/zombiefeeding.sol",
  "compiler": {
    "name": "solc",
    "version": "0.4.25+commit.59dbf8f1.Emscripten.clang"
  },
  "schemaVersion": "3.4.16",
  "updatedAt": "2025-10-19T20:13:38.997Z",
  "networkType": "ethereum",
  "devdoc": {
    "methods": {
      "isOwner()": {
        "return": "true if `msg.sender` is the owner of the contract."
      },
      "owner()": {
        "return": "the address of the owner."
      },
      "renounceOwnership()": {
        "details": "Allows the current owner to relinquish control of the contract."
      },
      "transferOwnership(address)": {
        "details": "Allows the current owner to transfer control of the contract to a newOwner.",
        "params": {
          "newOwner": "The address to transfer ownership to."
        }
      }
    }
  },
  "userdoc": {
    "methods": {
      "renounceOwnership()": {
        "notice": "Renouncing to ownership will leave the contract without an owner. It will not be possible to call the functions with the `onlyOwner` modifier anymore."
      }
    }
  }
}